:020000040040BA
:10000000603B00206506400061064000610640003C
:1000100061064000610640006106400000000000EB
:100020000000000000000000000000006106400029
:10003000610640000000000061064000150A400013
:100040006106400061064000610640006106400014
:100050006106400061064000610640006106400004
:1000600061064000610640000000000055044000A9
:10007000690440007D0440006106400061064000C4
:100080000000000000000000610640006106400022
:1000900061064000610640006106400061064000C4
:1000A00061064000610640006106400061064000B4
:1000B00061064000610640006106400061064000A4
:1000C00061064000610640006106400010B5054C25
:1000D000237833B9044B13B10448AFF300800123F4
:1000E000237010BD6C080020000000006C5140001F
:1000F000084B10B51BB108480849AFF30080084809
:10010000036803B910BD074B002BFBD0BDE81040BE
:10011000184700BF000000006C514000700800202C
:100120006C5140000000000010B50E480E4B98477F
:1001300000203E210D4B98470D4CA0470028FCD0D5
:100140000C4B98470C4A0D4B9A620D4CA047002867
:10015000FCD010200B4B98470B4B98470148024BA3
:10016000984710BD000E270729084000F9044000F9
:100170004D0540005D054000013F132000040E4086
:100180006D0540009104400015074000A8B92DE915
:10019000F0410C469046002A0ADD8F18084E094DA2
:1001A000306821462B6898470134BC42F8D101E001
:1001B0004FF000084046BDE8F0814FF0FF30704737
:1001C000540B00204C0B00200138022818D82DE9D0
:1001D000F0410E46144682B10D46DFF838800C4FD0
:1001E000D8F8000015F8011B3B68984700280ADB87
:1001F000A81B013CF4D1BDE8F0810020BDE8F081EE
:100200004FF0FF3070474FF0FF30BDE8F08100BF86
:10021000500B0020540B00204264B1F1C05F2FD07E
:1002200007D8B1F1006F14D0B1F1805F1ED039B999
:100230007047B1F1205F37D004D8B1F1005F29D009
:1002400042607047B1F1405F2ED0B1F1605F2BD0BA
:10025000F6E710B4016F046FD343214019400167E2
:10026000416F446F21400B4043671AE0036F134313
:100270000367436F416F0B4023EA02034367DFE7E5
:10028000036F016F0B4023EA02030367436F1343BD
:100290004367D5E7036F13430367436F1343436714
:1002A000CEE742605DF8044B704700BF416412F036
:1002B000010F14BF4166016612F00A0F14BF0162FC
:1002C000416212F0020F02D0C0F8801004E012F078
:1002D000080F18BFC0F8841041610160704700BF6B
:1002E00010B44164019C0CB1416600E001660BB1A1
:1002F000016500E041650AB1016300E0416301610D
:1003000001605DF8044B7047C06C7047806C7047AB
:1003100070B582B006460D46144602F0F043B3F1C4
:10032000005F38D009D8B3F1805F1CD0B3F1C05F53
:1003300025D0B3F1006F50D109E0B3F1405F3AD05E
:10034000B3F1605F37D0B3F1205F30D045E04FF0BC
:1003500000612A46224B984714F0010F14BF7566BE
:10036000356601203AE04FF080512A461C4B9847F1
:1003700014F0010F14BF7566356601202EE04FF0B2
:10038000C0512A46164B984714F0010F14BF7566EA
:100390003566012022E04FF000512A46104B984765
:1003A00014F0010F14BF75663566012016E00D4B81
:1003B0009847012012E004F0605204F0010300931A
:1003C00030462946B2F1605F14BF00220122C4F317
:1003D0008003054CA047012000E0002002B070BD62
:1003E00019024000AD024000E10240002DE9F8434F
:1003F00081468846124B984705464846114B984718
:10040000054013D0104C04F160062368434508D121
:100410006168294205D0E36840469847636825EA49
:100420000305B44202D01034002DEED1074B1B68F7
:1004300023B1074B1B680BB148469847BDE8F883CA
:10044000090340000D0340008C080020580B0020D9
:100450008808002008B502480B21024B984708BDC8
:10046000000E0E40ED03400008B502480C21024B7F
:10047000984708BD00100E40ED03400008B5024843
:100480000D21024B984708BD00120E40ED034000BD
:10049000184A136B23F0700318431063936E13F024
:1004A000080F03D009E0013B03D11EE04FF40063C5
:1004B00010498A6E12F0080FF5D00E4A136B23F024
:1004C000030343F002031363906E10F0080004D09E
:1004D00000207047013B03D109E04FF40063054958
:1004E0008A6E12F0080FF5D0704701207047012086
:1004F000704700BF00040E4038B111490B6A114A21
:100500001A40114B13430B6270470D4A136A23F4D0
:100510005C1323F0030343F45C1343F0010309026B
:1005200089B20B431362936E13F0010FFBD0044AA0
:10053000136A43F09B7343F480331362704700BF28
:1005400000040E40FCFFC8FE02003701024B986E0B
:1005500000F48030704700BF00040E404FF000529E
:10056000014B9A62704700BF00040E40024B986E28
:1005700000F00200704700BF00040E4022281ED881
:100580001F280CD8114B9A69012383401A409342CB
:1005900017D0012383400D4A1361002070470B4B95
:1005A000D3F808212038012383401A4093420AD00F
:1005B00001238340054AC2F8003100207047012022
:1005C0007047002070470020704700BF00040E40B5
:1005D00010B4AC2303600B684A68B3FBF2F31B0949
:1005E0005C1E4FF6FE7294420AD803628B68436029
:1005F00040F20223C0F8203150230360002000E0C5
:1006000001205DF8044B7047436913F0020F1ABFD5
:10061000C161002001207047436913F0010F1DBF25
:1006200083690B7000200120704700BF436913F0FD
:10063000020F1DBFC1F30801C161002001207047F6
:10064000436913F0010F05D08369C3F308030B60FE
:1006500000207047012070474FF40043436070470B
:10066000FEE700BF08B5204B204A9A4213D9204B21
:100670001D4A9A421FD21146043203339B1A23F0BB
:1006800003030433194A134452F8040B41F8040BD2
:100690009A42F9D10FE0144B144A9A420BD2144BF0
:1006A000114A9A1A134881182AB151F8042943F8BB
:1006B000042D8142F9D100BF0F4B104A9A420BD250
:1006C000131D0F4AD21A22F003021A44043B0021E0
:1006D00043F8041B9342FBD10A4B0B4A9A600B4B25
:1006E00098470B4B9847FEE7000000206C514000F4
:1006F0006C08002068514000600B00206C0800204E
:10070000630B002000ED00E0000040002D244000BD
:10071000390A40003D4B1B6B03F00303032B5DD8EC
:10072000DFE803F0020E2B2B394B5B6913F0800FCF
:1007300014BF4FF400424FF4FA42364B1A604DE0BA
:10074000324B1B6A13F0807F03D0334A314B1A605F
:1007500044E0324A2F4B1A602C4B1B6A03F07003A3
:10076000102B02D0202B04D038E02D4A294B1A60E0
:1007700034E0294A274B1A6030E0244B1B6A13F0FF
:10078000807F03D0244A234B1A6012E0234A214B76
:100790001A601E4B1B6A03F07003102B02D0202B33
:1007A00004D006E01E4A1B4B1A6002E01A4A194B9D
:1007B0001A60164B1B6B03F00303022B134A07BF8F
:1007C000936A926AD36AD26A1248C3F30A410368F1
:1007D00001FB0333D2B2B3FBF2F303600B4B1B6B91
:1007E00003F07003702B07D10A4A13680D49A1FB6F
:1007F00003135B0813607047044B1A6B0549C2F37F
:1008000002120B68D3400B60704700BF00040E401B
:1008100010140E4000000020001BB70000093D002E
:1008200000127A00ABAAAAAA1A4B984207D84FF036
:100830008063194A136002F5007213607047174B0A
:10084000984206D8164B144A136002F500721360E2
:100850007047144B984206D8134B0F4A136002F5A9
:10086000007213607047114B984206D8104B0A4A29
:10087000136002F50072136070470E4B984294BFEC
:100880004FF004230C4B044A136002F5007213600E
:10089000704700BFFF2C3101000A0E40FF59620271
:1008A00000010004FF86930300020004FFB3C404A8
:1008B00000030004FFE0F50500050004094B1B6878
:1008C00013B9094A074B1A60064B1B681A180749E7
:1008D000914204DB1046034A1060184670474FF0FF
:1008E000FF307047FC080020603B0020FC7F0220A6
:1008F0004FF0FF30704700BF4FF400534B600020B3
:10090000704700BF0120704700207047F0B583B0EA
:1009100005460C4600230193184B984207D11F4609
:10092000174E38462146B0470028FAD117E0154B3C
:10093000984207D11E46124D30462146A84700284E
:10094000FAD118E0104B984209D11E460F4D30469F
:1009500001A9A8470028FAD1019B23700BE00C4B9A
:100960009D4208D11E46094D304601A9A8470028DE
:10097000FAD1019B237003B0F0BD00BF00060E400A
:100980001906400000080E400040024041064000A9
:100990000080024070B50C46184B984208D11E46A4
:1009A000174D30462146A8470028FAD1012070BDD6
:1009B000144B984208D11E46114D30462146A84797
:1009C0000028FAD1012070BD0F4B984208D11E4675
:1009D0000E4D30462146A8470028FAD1012070BDAF
:1009E0000B4B984208D11E46084D30462146A84779
:1009F0000028FAD1012070BD002070BD00060E4015
:100A00000906400000080E40004002402D0640004C
:100A1000008002400122054B1A70054A13880549DF
:100A2000098811FA83F39BB21380704700090020F4
:100A300002090020040000202DE9F04F8BB09D48F2
:100A40009D4B98479D4B98479D484FF4C0614FF090
:100A500000629C4B984708209B4CA0479B4D9C4BA9
:100A60001D609C4A9C4B1A609C4A9D4B1A609D4B92
:100A700007934FF4E13308934FF400630993082080
:100A8000A047284607A9984B9847984E336898681E
:100A90000021974DA847336858680021A84795481A
:100AA000954DA8470B20A0470D20A047934B984792
:100AB0000B20012112220323914CA0470C2001217D
:100AC00012220323A0470D20012112220323A04755
:100AD0000E20012112220323A0470F200121122200
:100AE0000323A047032400940723019300260296C2
:100AF0001020122101220346824FB84782488349C1
:100B0000834B9847834B04225A7014221A71052193
:100B10005971DE709A7001221A709C717E4C7F4868
:100B20002188A84722887E4B03FB02F3013BB3F1E7
:100B3000807F80F046817B4A5360F0217A4B83F8B6
:100B400023109660072313600022784B1A60784BBD
:100B5000188880B2774B984707A8774B9847BDF81D
:100B60001C3013F0010F0CBF74487548624B984756
:100B7000BDF81C3013F0040F0CBF724872485E4B76
:100B80009847BDF81C107148C1F3C6015A4B9847ED
:100B9000BDF81C3013F4806F0CBF6D486D48564B88
:100BA0009847BDF81C106C48C90A534CA0476B48C5
:100BB000BDF82010A0476A48A0474FF00008C34680
:100BC000C246C146CDF81480664F594D594C664E09
:100BD0003B7813F0FF0F09D000233B70288880B2C8
:100BE000A04700F4807080B20028F7D196F88030DA
:100BF00013F0010F07D0059B63B95C483E4B984743
:100C00000123059306E0059B23B159483A4B9847C9
:100C10000023059396F8803013F0020F08D0B9F145
:100C2000000F0DD15348344B98474FF0010907E0AE
:100C3000B9F1000F04D050482F4B98474FF00009EE
:100C400096F8803013F0040F08D0BAF1000F0DD1E0
:100C50004A48294B98474FF0010A07E0BAF1000FC4
:100C600004D04748244B98474FF0000A96F880304C
:100C700013F0080F08D0BBF1000F0DD141481E4BF7
:100C800098474FF0010B07E0BBF1000F04D03E483E
:100C9000194B98474FF0000B96F8803013F0100F67
:100CA00076D0B8F1000F7BD13848134B98474FF0FE
:100CB000010875E050140E4059064000290140001B
:100CC000000E0E40110340007D05400000060E405E
:100CD000540B002095094000500B00200D094000E6
:100CE0004C0B0020000E2707D105400030040020E7
:100CF000912A4000B84E40007D244000411340003E
:100D000059144000551C4000E90D4000211A4000D4
:100D1000F51240001009002004000020084F400098
:100D2000C0D4010010E000E000ED00E01809002050
:100D3000020900207D1340002D134000384F400071
:100D4000484F40005C4F4000684F4000744F4000E7
:100D5000884F4000A04F4000C44F4000EC4F40007F
:100D6000E84F40000009002020090020FC4F40000F
:100D70000C50400020504000305040004450400093
:100D8000585040006C50400080504000945040004B
:100D9000B8F1000F04D00D480D4B98474FF00008F4
:100DA00096F884100B4B1B788B4204D0094B1970BA
:100DB0000948074B9847094B1B689868084B9847A8
:100DC00006E70848024B9847BEE600BFA85040001F
:100DD0007D24400001090020C05040003004002064
:100DE00059204000C45040002DE9F04F97B005460F
:100DF00000F08AFB8B4A039011788B4CDFF85492F9
:100E000000230129159392463DD0B9F8020061688C
:100E1000C9F808000122B9F806008AF80020226803
:100E2000C9F80C00100C40EA1140A060E360159373
:100E300001269E40159F06409E4001333E43102BE5
:100E40001596F5D1159BA360159B5B00C9F808307A
:100E500041EA02020023C9F80C3022606360159356
:100E60000121994015981140994001330143102BFD
:100E70001591F5D1159B2360159B5B00C9F80030D7
:100E80000023C9F804306268236854F8258059F8B3
:100E90002560654FCDF84C8042EA03030F93AB1CED
:100EA0004FF0000B54F8232059F82330149212937A
:100EB000E268A368119642EA03030120CDF834B03A
:100EC0001093CDF838B000F022FBB8F1000F00F01D
:100ED000AB8157F82530554A136057F82510544B0D
:100EE000196057F825005349086057F825005F46F8
:100EF000086041F8048C41F8046C41F8508C41F8CA
:100F0000506C41F8348C16601E6017F4005B64D19D
:100F1000039800F0FCFA00BF012000F0F8FA464AFE
:100F2000434B1660C3F8008000BF00BF00BF00BF86
:100F300000BFC2F80080414A1E6013780133DBB263
:100F40000137012BBFB2137005D9022B03D0032B3D
:100F500018BF82F800B03A4B1A68139B02EA0303E9
:100F60000D93002BD1D06268236842EA03030F93EC
:100F700092E017F4005B30D1039800F0C8FA00BF8C
:100F8000012000F0C4FA2F4A2F4B1660C3F80080EE
:100F900000BF00BF00BF00BF00BFC2F80080274AEB
:100FA0001E6013780133DBB20137012BBFB213701F
:100FB00005D9022B03D0032B18BF82F800B0234BB6
:100FC0001A68149B02EA03030E93002BD1D0E26847
:100FD000A36842EA030310935EE0002312491A4615
:100FE000D1F804E008684EEA00000DF13C0E4EF81E
:100FF00003000DF14C0E5EF803C00DF12C0E4EF8FF
:1010000003C000283FD03AE00DF12C0E5EF803E05B
:101010001EF0010F20D00E484FF4005C20F812C0E3
:101020001DE000BF04090020D00A002034120E4049
:1010300010120E4064120E4014120E4006000020E2
:101040003C120E40140E0E40100E0E403C0E0E4090
:1010500020090020E00A002010F0010F01D0013229
:10106000D2B20FA850F803E04FEA5E0E40F803E05A
:101070000BA850F803E04FEA5E0E40F803E00FA81B
:10108000C0580028C0D104330831082BA8D1083B30
:101090001393119314931293039800F038FA0022DB
:1010A0008AF8012013461146059204921046CDF8A5
:1010B00018800796AB460FADED58002D00F09380D9
:1010C00013ADED58002D00F08E800DAD0192EE585D
:1010D0000BADEE5009EB02056E6859F8025046EA76
:1010E000050EDD006D080895002653E015F0010F90
:1010F00037D0DDF810C0019A2CE01EF0010F25D08A
:1011000060451FD1CDF810C00DF1440C01924FF095
:1011100001085CF8032008FA06F822EA0802DDF864
:1011200020804CF8032015F0FE0F059DDFF8C0C1AC
:1011300008EB560808BF0125CDF824802CF818705C
:10114000059511E00CF1010C5FFA8CFC01364FEAB9
:101150005E0EF6B2BEF1000FCFD1CDF810C00192F5
:1011600002E01CF0010F01D00130C0B20FADED580C
:1011700015F0010F01D00131C9B20DF12C0C6D0831
:101180005CF803804FEA58084CF803800DF13C0CE2
:101190004CF803500FAD55F803C0BCF1000F03D05D
:1011A0000BADED58002DA1D113AE0DAD56F803C017
:1011B00055F803E0DDF81480019A2CEA0E0E46F88B
:1011C00003E00026EE500FADB8F1010FEE501CD138
:1011D000DDF81880079E8AF801105D46BEF1000F09
:1011E00008BF00271CE0A5186E68A55846EA05054B
:1011F00007E0159D15F0010F01D00131C9B2159D11
:101200006D081595159D002DF3D104330832082B78
:101210007FF451AFDDF81880079E8AF801105D4613
:10122000012000F074F901E046464746139B002B6D
:101230007FF46BAE149BEBB154F82510294A116072
:1012400054F8251042F8241C54F82510116354F862
:1012500025101163129E244A98461360166042F8C6
:101260004C3C42F84C6C42F8303C42F82C6C42F852
:10127000506C0EE0AB1C1D4A54F82310116054F85A
:10128000231042F8241C54F82310116354F823301F
:101290001363149B002B7FF46CAE54F82510114A95
:1012A0000398116054F8251042F8241C54F82510B6
:1012B000116354F825100235116354F825100B4AB8
:1012C000116054F8251042F8241C54F825101163BD
:1012D00054F8251011638AF8023017B0BDE8F04FBA
:1012E00000F015B934120E40600E0E40340E0E4060
:1012F0002009002070B504460E46002504E028466B
:1013000000F038F90135EDB2064B1B78AB42F6D848
:10131000054B002230461A805C60BDE8704000F04A
:1013200053BB00BFCD0A0020080900204FF48A43B8
:101330000380002343804FF4A06383807047000044
:1013400038B50B4B0B4C00251D700B4BE5721D7017
:101350000423637210332373A372133B0522237299
:1013600002336273A37300F033FB256138BD00BF05
:10137000CD0A002008090020F00A0020F8B5314C01
:101380000023A382E28A23882080D31AC01880B267
:10139000002503E0C838013580B2EDB2C728F9D87E
:1013A000294BE0821A782AB1954201D9002200E047
:1013B000521B1A70254B1B6803F07F639B08B3F127
:1013C0001A7F02D0B3F10A7F01D100F00FFB23692D
:1013D00003B198470026374608E03846294600F012
:1013E000D9F8013740EA0606F6B2FFB2184B197871
:1013F0008F42F2D31EB1A38A43F48073A3820023E9
:1014000084F8983084F8993084F89A3084F89B30C6
:101410001A4613E00F48105C10F0180F0BD004EBC5
:10142000D300012603F0070516FA05F590F8986039
:10143000354380F898500133DBB208328B42E9D152
:10144000A08AF8BD08090020CC0A002040070E4001
:10145000CD0A0020AC09002070B5094D094C2E784A
:1014600001F0070104EBC60403F0030343EAC101E2
:101470000136E2706071A07121712E7070BD00BFE5
:10148000CD0A0020AC0900202DE9F0411B4B1C4A7D
:1014900003EBC005127AEC7869791F46194B1441A9
:1014A0001B78E4B2032C98BF04248342064621D95A
:1014B0002B7913F0C00F15D1084600F079FAC4EB70
:1014C0009403984203DD2B7923F004032B716442CB
:1014D00024B2A0420FDC07EBC606337943F00403C5
:1014E000337108E023F0040322462B71BDE8F0417C
:1014F00000F0CCBB002000B2BDE8F081AC090020B8
:1015000008090020CD0A0020EFF31080704780F317
:10151000108870470C4A30B5022402EBC00102F873
:1015200030400A484B7904888D7944F002040480E5
:101530000020887005E0D1188020013381F8000177
:10154000DBB2AB42F7D930BDAC0900201C0900204A
:1015500020EAE07080B27047054B03EBC00252797D
:101560009A1882F80011202203F8302001207047D9
:10157000AC09002010B50446FFF7CCFF044B012254
:1015800003F8342003EBC4040F23637010BD00BFC5
:10159000AC0900202DE9F74F0446AF4F4FEAC40BCA
:1015A00007EB0B068846FFF76FFF337996F8039039
:1015B00017F83420019003F0030A0AF1010A49FAEE
:1015C0000AFA5FFA8AFABAF1010F98BF4FF0020ADD
:1015D000CAEB090A042A3D461FFA8AFA00F0C780BE
:1015E00005D8012A0DD0022A40F0D6813FE0102A0A
:1015F00000F03A81202A00F0A881082A40F0CC812E
:101600007FE1964972790B8896F806C043F400731F
:101610000F4619E0691802F120004978092990491C
:1016200002D931F8126009E031F8106031F8128007
:10163000464501D9013E01E004D2013621F810608F
:1016400043F008030132D2B262454FEAC401E1D946
:101650006A183B805378013BDBB2537013B92046C4
:10166000FFF758FF7F4B9B7885F820311BE013F084
:10167000040A0AD020460021FFF76EFF774B1A8834
:1016800042F4805280461A808AE1FFF761FF4845A4
:101690000CD3042307F83430704B86F802A01A8864
:1016A00042F480621A804FF0010879E1B8F1000F2E
:1016B00000F0768197F82031002B40F07081694A64
:1016C000664992F805C01279737996F806906FF022
:1016D0007F07BF1A8CF0800CFFB20A888B4641E06E
:1016E0005F4903F1200031F8136031F81040B44233
:1016F0000FD2EE1896F800A1C2445FFA8AFAE245CA
:1017000086F800A12CD34FF0800A86F800A101349E
:1017100010E014D9EE1896F800A1C8EB0A0A5FFA97
:101720008AFABA4586F800A11AD84FF0800A86F8DE
:1017300000A1013C21F8104042F0080210E0E91835
:1017400091F80001802802D9013881F80001E918D8
:1017500091F8000110F0800F02D1013081F80001F2
:101760000133DBB24B45BBD9ABF8002014E1FFF7E6
:10177000EFFE48456BD33B4A937887F82031B37826
:101780000133B370337903F038034FEAD30B91463A
:10179000002B31D000273E4627E0A64223D008EB9D
:1017A000C60A9AF8043003F03803BBEBD30F1AD102
:1017B0003046FFF769FE9AF8033008EBC402C31AFB
:1017C000D1780198411A8B4202DD0023937009E021
:1017D00018F83630102B01D0082B04D105EBC403C8
:1017E00000229A7001270136F6B295F82131DFF810
:1017F0006880B342D1D867B999F80180B8F1000F79
:1018000009D0164B1A8842F400621A804FF0010882
:1018100001E04FF0000805EBC40599F80130AA7803
:101820009A42C0F0BD800D4B1A8842F003021A8024
:10183000094B102203F8342000236B702B7913F02E
:10184000C00F00F0AD80204600F036FBA8E0204637
:10185000FFF760FEA0E000BFAC0900201C090020DB
:10186000200900201009002013F0040F4E4FDFF86C
:101870003C9109D020468021FFF76EFE3B8843F45F
:10188000805380463B8037E0FFF762FE504506D22A
:10189000082305F834303B8843F4806327E03B8815
:1018A00099F8012043F001033B80B3789A4201D9B3
:1018B0000133B37005EB0B031B7913F0C00F02D09B
:1018C000204600F00FFA99F80330A3B105EBC402EB
:1018D0005178994205D2884482F801804FF000087F
:1018E0000AE02046FFF746FE3B8843F400733B8046
:1018F0004FF0010800E0984699F8023085F8203151
:101900004EE02A4B9B7887F8203196F80280B8F198
:10191000000F2CD0FFF71CFE5045234B09D9102295
:1019200007F834201A8842F001021A804FF00008AC
:1019300005E01A8842F480621A804FF0010805EB36
:10194000C404A378013BA3702AE07179791891F857
:1019500000210132D2B213F0040881F800210AD12B
:1019600012F0800F03D0102307F8343018E020461F
:10197000FFF7D0FD14E00D4B0B4D9B79934206D839
:101980002046FFF7F7FD2B8843F4805302E02B88B5
:1019900043F480632B8086E64FF0000800E0D046D9
:1019A0004046BDE8FE8F00BF1C0900201009002042
:1019B000044B00F1200233F8122033F81030D01A13
:1019C00000B270472009002008B500B1804708BD6B
:1019D000054B00221A605A601A615A619A60DA60F7
:1019E0009A61DA61704700BFD00A002010B50A4C36
:1019F000A2682368134304D0084B1B680BB1002076
:101A00009847E2686368134304D0044B1B680BB12A
:101A10000120984710BD00BFD00A00200C0900200B
:101A2000F8B5FFF7D5FF3F4B1E7800231C4618463C
:101A3000194617E03C4D5D192A7912F0C00F6A79FA
:101A400004D1012515FA02F2104308E0AD7904E053
:101A50000127974001323C43D2B2AA42F8D9013162
:101A6000C9B20833B142E5D10022134634FA03F17A
:101A700011F0010F33D02D49012651F8225016FAEA
:101A800003F747EA05051F2B41F8225006D09F199E
:101A9000BE4046EA050541F8225006E0951C51F883
:101AA000256046F0010641F825609D1C1F2D4FF072
:101AB000010707D851F8226017FA05F5354341F8B8
:101AC000225008E0961C05F01F05AF4051F8265043
:101AD0002F4341F826700233DBB201210EE030FAC9
:101AE00003F111F0010109D0104D012155F82260D8
:101AF00011FA03F747EA060645F82260002A0CBFF0
:101B00000A4600220133DBB21F2BAFD9074A084B2C
:101B100011681960516859609168D2689960DA60FB
:101B2000F8BD00BFCD0A0020AC090020D00A00207B
:101B3000E00A002070B50E4C9DF8105026780D4C30
:101B400004EBC60403F00703E2700B4A60711678D9
:101B5000A171E6719DF8141001F0030141EAC3037D
:101B6000237102EB86036D0101361D71167070BD85
:101B7000CD0A0020AC090020F00A0020034639B34A
:101B80000132D2B203E0013A5B00D2B29BB213F44D
:101B9000004F06D1002AF6D103E001324900D2B24B
:101BA00089B211F4004FF8D000200AE04000013A59
:101BB0008B4280B2D2B203D35B1A01309BB280B2A7
:101BC00049083AB110F4004FF0D04FF6FF7070475B
:101BD0004FF6FF70704700002DE9F8431B4C00F1F1
:101BE000200600F1210334F81670054600F10108C3
:101BF000394634F813000C22FFF7C0FF0C220146CF
:101C000034F81800FFF7BAFF05F122033946804681
:101C10000C2234F81300FFF7B1FF05F10209014669
:101C20000C2234F81900FFF7A9FF07462846FFF7F2
:101C3000BFFE34F81620064BC8EB0208D71B5884A9
:101C4000A3F82480DF84BDE8F88300BF20090020CA
:101C5000F00A002037B514469DF818209DF81C5056
:101C600001921A4623460095FFF764FF054B06498B
:101C70001A7801EBC201013208791A7060F07F0016
:101C800008713EBDCD0A0020AC090020F8B504461D
:101C900008461546FFF7A0FF104A508C968CD18C51
:101CA00037B203B20AB29F42B8BF3B469342A8BFC5
:101CB00013463218521892B26D4211B2A94206DC94
:101CC000074901EBC404217941F0040121719BB261
:101CD000D21AD21AD31A18B2F8BD00BFF00A0020E7
:101CE000AC0900202DE9F0476F4C704F04EBC003A6
:101CF0008046DD79587907EB8502A1461679FFF712
:101D00006BFF7B8CBA8CFC8C18B211B2884207DB5B
:101D100020B281420EDA18461146234600240FE015
:101D2000214624B2A04208DC08464FF4005419466C
:101D3000134605E01046214600E010464FF480545B
:101D400089B280B2421AC018401A411A89B290B2C0
:101D50000C22FFF713FF09EBC803041993F8049052
:101D600009F0C009B9F1800FA4B212D1A4F518731B
:101D7000073B9BB242F63132934200F2938040F22D
:101D800032739C4240F28980A4F5E664023CA4B21E
:101D900084E042F6FF784FF4405073095A1C4FF428
:101DA000807600E076080133DBB2072BFAD906F122
:101DB000FF3A042A5FFA8AFA02D8710089B204E075
:101DC000062A01D9710800E031460022FFF7D6FE4D
:101DD000B9F1400F16D107EB85025388B3F5C05F08
:101DE00008D3A3F5C0539BB2A3420BD904F54054CA
:101DF000A4B207E003F5C05189B2A1423CBF03F58C
:101E00004053538007EB8502137913F0010105D08D
:101E100023F0010300201371024604E013F00202D4
:101E20001CBF0246084607EB8503598852189442A6
:101E300003DB1A7922F0020205E00019884204DC73
:101E40001A7942F002021A715C8007EB8503314671
:101E50005A88B2F5405F24BFA2F540525A804046EE
:101E60000022FFF78BFE07EB8507002201467888EA
:101E7000FFF784FE0E4A5519504528BF504695F885
:101E80008420C3B29A420DD00A4B85F884001A8888
:101E900042F004021A80BDE8F087002442F29B1849
:101EA00040467AE7BDE8F087AC090020F00A002040
:101EB000200900201C090020054B03EBC003DA7940
:101EC000044B03EB82031A7942F001021A71704746
:101ED000AC090020F00A00208B899AB22DE9F0416C
:101EE0000D46110780463CD46A6843F40063002A1B
:101EF000AB8165DDAE6A002E4BD09BB203F48052FD
:101F0000002192B2D8F80040C8F80010002A5BD037
:101F10002A6D5F0705D569682B6B521A0BB1EB6B05
:101F2000D21A4046E9690023B047461C56D0AB8917
:101F30002A692A6023F400639BB200226A60DA04F3
:101F4000AB813BD4296BC8F8004011B305F14003C5
:101F5000994202D0404600F067F900202863BDE8AE
:101F6000F0812E69AEB12C682E6091070CBF6B69B1
:101F70000023A41BAB600AE0324623466F6AE9697E
:101F80004046B8470028A4EB0004064404DD002CBA
:101F9000F2DC0020BDE8F081AB8943F04003AB8167
:101FA0004FF0FF30BDE8F081AB892A69696023F406
:101FB00000639BB2AB81DB042A60C3D52865C1E70F
:101FC000EA6B002A96DCE4E701234046E969B04762
:101FD000431C024619D0AB89AE6A9AE7D8F80010C4
:101FE0000029E1D01D2907D0162905D0AB8943F07F
:101FF0004003AB81BDE8F081AB892A692A6023F4F4
:1020000000630022AB816A609CE7D8F80030002BA7
:10201000E1D01D2B07D0162B05D0AB8943F0400330
:10202000AB81BDE8F081C8F80040B2E710B50446C6
:1020300082B008B1836B53B1B1F90C0008B902B09A
:1020400010BD204602B0BDE81040FFF745BF01912A
:1020500000F092F80199EFE720B1054B01461868AE
:10206000FFF7E4BF034B0449186800F0B5B900BF9F
:1020700030040020EC5040002D204000014900F0C9
:10208000ABB900BF4D3A40002DE9F04F354B4568E4
:10209000C3630024074600F53B7204230321C0F804
:1020A000E412C0F8E822C0F8E04283B02C606C6013
:1020B000AC606C66EC812C616C61AC61AB812146DB
:1020C00005F15C00082200F07FFCBE68DFF898B0E4
:1020D000DFF898A0DFF89890DFF89880C5F820B076
:1020E00001230922C5F824A0C5F82890C5F82C8042
:1020F000ED612146F381B28106F15C0034607460C9
:10210000B460746634617461B4610822019300F0B4
:102110005BFCFD68F66112200222C6F820B0C6F80A
:1021200024A0C6F82890C6F82C802146A881EA8110
:102130002C606C60AC606C662C616C61AC6105F10C
:102140005C00082200F040FC019BED61C5F820B066
:10215000C5F824A0C5F82890C5F82C80BB6303B04F
:10216000BDE8F08F7D204000992B4000BD2B400042
:10217000F52B4000152C4000836B03B17047FFF72F
:1021800083BF00BF704700BF704700BFF8B5234F43
:102190000C46064600F066FCBB685D6825F003054A
:1021A000291B01F6EF7121F47F6121F00F01A1F5E8
:1021B0008054B4F5805F07DB3046002100F056FC08
:1021C000BB682B44984204D0304600F04DFC002000
:1021D000F8BD3046614200F049FC01300DD0104B93
:1021E000BA6819682D1B45F001053046091B55607A
:1021F000196000F039FC0120F8BD3046002100F0E4
:1022000035FCBA68831A0F2BDEDD064C04492468BE
:1022100043F00103001B53600860D5E7340400203D
:10222000240B00204008002000294ED02DE9F04169
:102230000C46804600F016FC54F8047C624927F0F6
:102240000102A4F10805AB188E6858689E4220F080
:1022500003005AD0FE0758600BD454F8087CED1BDD
:1022600001F1080EAC6874453A4467D0EF68E76046
:10227000BC601C186468E4070CD4544F9C68BC42D2
:1022800002447CD0D868E06042F0010384606B6057
:10229000AA5003E042F001036B60AA50B2F5007F40
:1022A00014D2D20801EBC20348689F68AF60921055
:1022B000012404FA02F21043EB6048609D60FD6067
:1022C0004046BDE8F04100F0CFBB7047530A042BF5
:1022D00047D8930903F13804600001EB80003A49C4
:1022E0008368834243D0596821F00301914202D9A7
:1022F0009B689842F7D1DA68EA60AB604046956027
:10230000DD60BDE8F04100F0AFBBFF07024407D439
:1023100054F8083CED1A1A44A868EB68C36098604A
:102320002B4B1B6842F001009A4268608D60C7D356
:10233000284B40461968FFF729FFC1E7191849687B
:10234000C90709D4D9689B68024442F00100D960EA
:102350008B606860AA50B3E742F001036B60AA503B
:10236000AEE7142B14D803F15B046000B5E74A68AC
:10237000A4100120A04002434A601A46BCE742F084
:1023800001034D610D61EC60AC606B60AA5097E792
:10239000542B04D8130B03F16E0460009DE7B3F5D2
:1023A000AA7F04D8D30B03F17704600095E740F2CD
:1023B0005450834204D8930C03F17C0460008CE7F2
:1023C000FC207E2489E700BF340400203C04002068
:1023D0003C080020200B00202DE9F84310F5387749
:1023E0001FD0884606464FF000097D68BC68013D55
:1023F00011D4A389012B05F1FF3508D9B4F90E30AA
:1024000001332146304602D0C04749EA00096B1C1F
:1024100004F16804EDD13F68002FE6D14846BDE8DD
:10242000F883B9464846BDE8F88300BF70B50F4E43
:102430000F4D761BB61018BF002405D0013455F897
:10244000043B9847A642F9D10A4E0B4D761B02F089
:1024500077FEB61018BF002406D0013455F8043BAF
:102460009847A642F9D170BD70BD00BF4C514000E5
:102470004C514000545140004C5140000FB400B545
:10248000074983B004AB086853F8042B81680193B3
:1024900000F000FC03B05DF804EB04B0704700BF2F
:1024A000300400202DE9F04F01F10B05162D83B00B
:1024B000064627D935F0070500F1B680A94200F29B
:1024C000B38000F0CFFAB5F5FC7F22D2C24FE80806
:1024D00007EBC003DC689C4200F0C8816368E168D8
:1024E000A56823F00303234430465A68E96042F0AC
:1024F00001028D605A6000F0B7FA0834204603B03C
:10250000BDE8F08F102900F28F8000F0ABFA1025A3
:10251000DCE7680A00F08F80042800F25481A809E3
:1025200038304100AC4F07EB8101CC68A14206D1A5
:102530000CE0002A80F28280E468A14206D0636841
:1025400023F003035A1B0F2AF3DD01380130A2499F
:102550003C6901F1080E744500F07D81636823F049
:1025600003035A1B0F2A00F36381002AC1F814E009
:10257000C1F810E073DAB3F5007F80F03981DB0831
:1025800001EBC3084FEAA30C4A68D8F80890C4F8D6
:102590000890012303FA0CF31343C4F80C804B603A
:1025A000C8F80840C9F80C408210012494409C42AD
:1025B00062D8234206D120F003006400234200F1D8
:1025C0000400FAD007EBC008C4468146DCF80C30A2
:1025D0009C4507D141E1002980F25181DB689C458F
:1025E00000F03B815A6822F00302511B0F29F2DDF3
:1025F0001C46D3F80CC054F8088F5A1945F001094D
:1026000041F00105C3F804903046C8F80CC0CCF87E
:1026100008807A613A61C2F80CE0C2F808E05560BF
:10262000515000F021FA69E700240C232046336062
:1026300003B0BDE8F08F7E213F2073E72344E168BB
:102640005A68A56842F00102E96030468D605A6020
:1026500000F00AFA0834204603B0BDE8F08F2344A6
:1026600030465A6842F001025A6000F0FDF9083421
:10267000204603B0BDE8F08FBC68636823F0030810
:10268000454504D8C5EB08030F2B00F38C80534B52
:10269000DFF858A11A68DAF8003001332A4404EB55
:1026A000080B00F0508102F580520F3222F47F6255
:1026B00022F00F0211463046019200F0D7F9B0F136
:1026C000FF3F8146019A00F04781834500F2EE808A
:1026D000434B1968CB451144196000F04281DAF888
:1026E0000000DFF808E101301BBFCBEB090B5944B8
:1026F000CEF80090196019F0070100F00781C1F1D0
:102700000800C1F58051814408314A44C2F30B02EC
:10271000C2EB010A51463046019300F0A7F9431C71
:10272000019B00F02C81C9EB0002524442F00102EF
:102730001968C7F808905144BC42C9F804201960D0
:10274000DFF89CA016D0B8F10F0F40F2EE8062685F
:10275000A8F10C0323F00703E01802F001024FF088
:10276000050E1A430F2B6260C0F804E0C0F808E0C1
:1027700000F209811B4BBC681A68914288BF19603E
:10278000194B1A689142626888BF196022F00302EF
:102790009542A2EB050301D80F2B04DC304600F074
:1027A00063F90024AAE6621943F0010345F001052C
:1027B00065603046BA60536000F056F90834204630
:1027C00003B0BDE8F08F142868D9542800F2978030
:1027D000280B6E304100A5E634040020200B0020B9
:1027E000240B00201C0B0020180B002040080020A8
:1027F0005A0A042A55D9142A00F2A7805B324FEAFC
:10280000420C07EB8C0CDFF8BC81DCF8081061454A
:102810007FD04A6822F00302934202D289688C4535
:10282000F7D1CA687B68E260A1609460CC60BBE6C7
:10283000631942F0010745F00105656030464B61C0
:102840000B61C3F80CE0C3F808E05F609A500834ED
:1028500000F00AF952E64B68A6E609F1010919F001
:10286000030F0CF1080C7FF4B1AE2CE004F1080367
:102870006469A34208BF02303FF469AE2EE61A44F1
:102880001C465168DB6854F8085F41F00101516053
:102890003046EB609D6000F0E7F82FE65B304100CA
:1028A00040E69A0938324FEA420CAAE7BC42454B4F
:1028B0003FF40EAF9C68626822F0030268E7D8F824
:1028C000008098457CD110F0030FA8F1080300F1B7
:1028D000FF30F4D17B6823EA04037B6064009C42F0
:1028E0003FF6CAAE002C3FF4C7AE234248467FF401
:1028F00069AE6400234200F10400FAD062E6B0F54C
:10290000AA7F18D8E80B773041000BE64FF48051CE
:10291000FBE6D8F8043092104FF0010C0CFA02F2EA
:102920001343C8F804300A467DE70123C9F8043090
:102930004C4600222CE740F2545398421CD8A80C75
:102940007C304100EEE51032B4E6542A23D81A0B4D
:102950006E324FEA420C54E7BC68626822F0030210
:1029600016E7CBF30B0000287FF4B9AE4244BB68F6
:1029700042F001025A60FDE6FC217E20D2E50122F0
:102980004FF0000AD4E604F108013046FFF74CFC92
:10299000DAF80010EEE6B2F5AA7F04D8DA0B773247
:1029A0004FEA420C2DE740F254518A4204D89A0C67
:1029B0007C324FEA420C24E74FF0FC0C7E2220E7E9
:1029C0007B688BE73404002070B4840746D0541E23
:1029D000002A41D0CDB2034602E0621EE4B31446A1
:1029E00003F8015B9A07F8D1032C2ED9CDB245EA42
:1029F00005250F2C45EA054519D903F11002264695
:102A0000103E0F2E42F8105C42F80C5C42F8085C55
:102A100042F8045C02F11002F2D8A4F1100222F094
:102A20000F0204F00F041032032C13440DD91E467C
:102A30002246043A032A46F8045BFAD8221F22F001
:102A400003020432134404F003042CB1C9B21C4441
:102A500003F8011BA342FBD170BC70471446034628
:102A6000C2E700BF704700BF704700BF38B5074CD2
:102A70000023054608462360FDF720FF431C00D0D5
:102A800038BD2368002BFBD02B6038BD5C0B0020C9
:102A900000290CBF022200224FF4806300F000B82E
:102AA0002DE9F0413A4C26680D46044690461F46F3
:102AB00016B1B36B002B3CD0B8F1020F2FD8002F0A
:102AC0002DDB21463046FFF7B1FAA1890023636070
:102AD000A3610B0627D421F0830189B2B8F1020F5C
:102AE000A1812AD0002D36D0B8F1010F11D089B2C2
:102AF00001F00800274BF36380B225602561676110
:102B000078B111F0030F18BF0027A7600020BDE8BF
:102B1000F08141F001017B42A181A361E7E74FF021
:102B2000FF30BDE8F08121693046FFF77DFBA189C8
:102B3000D1E73046FFF720FBBEE7002004F1430356
:102B400041F0020100250122A181A56023602361DB
:102B50006261BDE8F081002F08BF4FF480673846FE
:102B600001F050FA054628B1A18941F0800189B2EF
:102B7000A181B9E74FF4806001F044FA054618B925
:102B8000A1894FF0FF30D9E74FF48067ECE700BF31
:102B9000300400207D20400010B50C46B1F90E1025
:102BA00001F080FB002803DB236D0344236510BD87
:102BB000A38923F48053A38110BD00BF2DE9F04108
:102BC00016468A891D46D3050C46074606D50022BF
:102BD000B1F90E10022301F091F9A289B4F90E1097
:102BE00022F48052A281384632462B46BDE8F0419D
:102BF00000F094BE10B50C46B1F90E1001F07EF94C
:102C0000A389421C0EBF23F4805343F480532065F4
:102C1000A38110BDB1F90E1000F006BF4B6E2DE977
:102C2000F0479C040F4692462BD59368126833B345
:102C3000804602F1080919E96000B60817D0043D82
:102C4000002401E0A64210D0404655F8041F3A4641
:102C500000F0ACFF431C04F10104F3D10023CAF8D7
:102C60000830CAF80430BDE8F087DAF80830A3EB82
:102C70008603CAF8083009F10809002BDBD10020CF
:102C8000ECE700F0A5FF0023CAF80830CAF80430CA
:102C9000BDE8F0872DE9F04FABB01C46009193469C
:102CA0000493019018B1836B002B00F0E380009B2C
:102CB00099898AB2900408D418465B6E41F4005298
:102CC00023F400538281436692B2110740F1B2802F
:102CD000009B1B69002B00F0AD8002F01A020A2A4B
:102CE00000F0B48000230DF1680A09930F930E934E
:102CF0000293CDF834A054469BF80030002B00F02E
:102D0000A384252B00F0A0845A4601E0252B03D094
:102D100012F8013F002BF9D1CBEB0206154696B114
:102D20000E9B0F9AC4F800B001333244072B666043
:102D30000F920E9379DD002A40F0AF84029B0E9231
:102D40003344544602932B78002B00F0608300211B
:102D50004FF000034FF0FF3C8DF82F30681C6B786C
:102D600088460D46664600F1010BA3F12002582A61
:102D700000F2AB82DFE812F09B02A902A902A302D3
:102D8000A902A902A902A902A902A9025502620286
:102D9000A9020D016E02A90229012F012F012F01A5
:102DA0002F012F012F012F012F012F01A902A902AD
:102DB000A902A902A902A902A902A902A902A902BB
:102DC0003D01A902A902A902A902A902A902A90218
:102DD000A902A902A9027401A902A902A902A902D1
:102DE000A9028B01A902A902A301A902A902A902B1
:102DF000A902A902A902A902A902A902A902C7015E
:102E0000DA01A902A902A9022301DA01A902A90291
:102E10004C02A9028A021301F3010702A9020D0262
:102E2000A9028100A902A90233020834029B33449B
:102E3000029388E70198009900F084FDA8B9009BEF
:102E40009A8902F01A020A2A7FF44CAF009BB3F968
:102E50000E30002BFFF646AF019800995A462346E4
:102E600000F020FD2BB0BDE8F08F4FF0FF302BB00D
:102E7000BDE8F08FFFF780F919E718F0200F0395F0
:102E8000B44600F00C81049B073323F0070303F1E1
:102E90000802D3E90067049201234FF000028DF885
:102EA0002F20E1460025BCF1000FA8BF28F08008C4
:102EB00056EA070240F0C480BCF1000F00F08183A5
:102EC000012B00F0C580022B00F087835146F208E9
:102ED00042EA4772F80806F0070307461646303301
:102EE00056EA070201F8013DF1D118F0010F0791F0
:102EF00040F0FC83C1EB0A09E1454E46B8BF664687
:102F000005B1013618F00203059318BF023618F018
:102F10008403069340F0FA81039B9D1B002D40F330
:102F2000F581102D40F38C84DDF838E00F9AC64F00
:102F30002046102364467146844607E001F1020EE4
:102F40000CF1080C0146103D102D13DD481C103209
:102F500007280F92CCF80070CCF804300E90EDDD0D
:102F6000002A40F0C381103D102D11464FF0010E94
:102F7000D446EBDC63467146A4461C462A44072926
:102F80000F92276065600E9100F346830834481C59
:102F9000BFE1584648F004089BF80030E3E618F01B
:102FA00020030395B44662D0049B073323F0070344
:102FB00003F10802D3E90067049200236DE748F0AB
:102FC00040089BF800305846CDE648F080089BF852
:102FD00000305846C7E6A3F1300200251BF8013B3C
:102FE00005EB850502EB4505A3F13002092AF5D969
:102FF000BBE648F0100818F0200F0395B4468DF892
:103000002F1000F09B800499073121F00701D1E9CE
:1030100000230831049116461F46002A73F100036D
:10302000C0F2A683BCF1000FA8BF28F0800856EAC2
:1030300007029DF82F50E1464FF001033FF43CAFEB
:10304000012B7FF440AF002F08BF0A2E80F034839D
:103050002AAB303603F8416DC3EB0A0907934BE7FF
:1030600048F0100818F020030395B4469CD118F0DE
:10307000100240F0F78218F0400300F0F382049948
:1030800013460A4604320E880492002705E748F0EA
:10309000100818F0200F0395B4467FF4F4AE049A9C
:1030A00018F0100F134640F0E48218F0400F00F0C3
:1030B000E08216880432002701230492EDE6634A79
:1030C000039518F0200FB4468DF82F10099200F0E8
:1030D0009080049A073222F00702D2E9006702F1D9
:1030E0000801049118F0010F00F0908256EA0702DF
:1030F00000F08C8230228DF8313048F002088DF8D3
:1031000030200223C9E6049A039513688DF84030F5
:103110001346043301264FF00001049310AB8DF8E1
:103120002F10B14607934FF0000CEBE618F0200F7C
:103130000395B4468DF82F107FF465AF18F0100F8B
:1031400040F0A28218F0400F00F09E820499B1F97D
:1031500000600431F71732463B4604915DE704995D
:10316000039530230A468DF83030782304328DF8E9
:103170003130374B0993B44648F002080E68049288
:103180000027022389E648F020089BF800305846C3
:10319000E9E5049A0395136807934FF00001B446DC
:1031A0008DF82F10161D002B00F05083BCF1000F7E
:1031B000C0F22A83079DCDF810C062462846002140
:1031C00000F028FFDDF810C0002800F05083C5EBA8
:1031D000000904969DF82F504FF0000C8CE61C4A15
:1031E000039518F0200FB44609928DF82F107FF444
:1031F00070AF049918F0100F0A4640F0408218F0A2
:10320000400F00F03C8204320E880492002769E7E8
:103210009BF800306C2B00F0EA8248F0100858460A
:10322000A1E5049A15681346002D03F10403C0F2CA
:10323000E68204939BF80030584694E59BF80030F2
:1032400058462B218FE500BF30514000005140000F
:10325000145140009BF800302A2B0BF1010000F0C4
:103260000F83A3F13002092A83464FF000063FF690
:103270007CAD1BF8013B06EB860602EB4606A3F18C
:103280003002092AF5D946EAE6766EE518F0200FF5
:103290008DF82F1000F08382049A02991368CF17DB
:1032A0000846043239460492C3E9000124E5584631
:1032B0009BF8003000297FF456AD202153E548F0FB
:1032C000010858469BF800304DE503958DF82F1006
:1032D000002B00F09C808DF840304FF00003012659
:1032E0008DF82F3010ABB14607931CE70198009979
:1032F00008930DAAFFF792FC002840F08F800E99EA
:103300000F9A089B01F1010ED4461CE60E990F9A04
:10331000481C9DF82F306BB101320DF12F030121B4
:1033200007280F920E902360616000F334810146FC
:1033300008340130059B63B102320CA9022307282F
:103340000F920E9084E80A0000F33481014608349D
:103350000130069B802B00F0D480C9EB0C07002FB6
:103360002BDD102FAA4D1FDDA6461023019C07E080
:1033700001F1020C0EF1080E0146103F102F11DD75
:10338000481C103207280F92CEF80050CEF80430B7
:103390000E90EDDD6ABB103F102F4FF0010C11466F
:1033A000D646EDDC744660463A4407280F9284E81E
:1033B000A0000E903BDC0834013002EB0903079AB1
:1033C0000F93072884E804020E903DDD002B40F0A7
:1033D0003E8118F0040F0E9340F02F81029B039A58
:1033E0009642ACBF9B199B18029300230E93544640
:1033F00082E42046009905930DAAFFF70FFC68B9F7
:103400000E990F9A059B01F1010CD646B5E70F9B6B
:1034100023B1019800990DAAFFF700FC009B9B893E
:103420005B063FF522AD02982BB0BDE8F08F002A75
:1034300040F0918101220799CDF86C904B46CDF870
:103440003C901A910E92544604F1080218F0040FB1
:1034500039D003998D1B002D35DD102D40F30282EC
:103460000E986C4FDDF80480DDF80090102406E023
:1034700000F1020E08320846103D102D10DD411CEF
:10348000103307290F93176054600E91F0DD002B65
:103490002AD1103D102D4FF0010E18465246EEDC99
:1034A0002B44BEF1070F0F9317605560CDF838E03D
:1034B00009DD002B92D0019800990DAAFFF7AEFB11
:1034C0000028ABD10F9B029A03998E42ACBF921990
:1034D00052180292002B88D0019800990DAAFFF78C
:1034E0009DFB002881D099E7404649460DAAFFF789
:1034F00095FB002892D10E980F9B00F1010E5246C9
:10350000BAE7039B9F1B002F7FF727AF102F404D7B
:1035100040F3B481204610236446844607E001F15D
:10352000020E0CF1080C0146103F102F11DD481C53
:10353000103207280F92CCF80050CCF804300E90CF
:10354000EDDDC2B9103F102F4FF0010E1146D446E9
:10355000EDDC6346A4461C463A44BEF1070F0F92C9
:1035600084E8A000CDF838E000F3EF8008340EF1D5
:1035700001007146F1E60198009905930DAAFFF745
:103580004DFB00287FF44AAF0E990F9A059B01F17D
:10359000010ED446C8E7002A40F0C680059B002BE8
:1035A00000F086800CAA02231A9208461B931A4642
:1035B0005446CBE6002A40F0A6800120114654462E
:1035C000C7E603BB18F0010F1DD02AAB302203F869
:1035D000412DC3EB0A0907938EE40998D1463309BC
:1035E00006F00F0143EA07733A091E461746435C8B
:1035F00009F8013D56EA0703F1D14B46CDF81C907E
:10360000C3EB0A0978E4CDF81CA075E4022344E476
:10361000F050400030514000002A40F0D7809DF823
:103620002F30002B00F0AE8001230DF12F01184642
:103630001B931A461A91544679E6039A951B002D5E
:1036400052463FF70AAFC9E65D46FFF77CBB0198DB
:1036500000990DAAFFF7E2FA00287FF4DFAE0F9B76
:103660005246F3E604990A4604320E680492002793
:1036700013E404321E680492012300270DE4166847
:103680000432049200272DE5049A16681346043389
:10369000F717049332463B46BFE4019800990DAA00
:1036A000FFF7BCFA00287FF4B9AE5446FFF7BEBB63
:1036B0000846544611464CE6D146CDF814C0304673
:1036C00039460A22002301F029F9303230463946C2
:1036D00009F8012D00230A2201F020F906460F46C1
:1036E00056EA0703EBD1DDF814C086E7302B079BC1
:1036F00086D0013B1A4607933023C2EB0A0901F832
:10370000013CFFF7F9BB01980099CDF814C00DAA50
:10371000FFF784FA00287FF481AE0E990F9ADDF846
:1037200014C0481C544614E601980099CDF820C0F6
:103730000DAAFFF773FA00287FF470AE0E990F9A66
:10374000DDF820C0481C5446F4E5002A67D101206A
:103750001146544601E6019800990DAAFFF75EFA5A
:1037600000287FF45BAE0E980F9A0130544624E691
:103770002D25764267EB47078DF82F50E146012350
:10378000FFF791BB059B114601205446002B3FF4E7
:10379000E4AD0CAA02238AE80C001A46D6E518F01C
:1037A000100F0BD118F0400F08D0049A13680432A0
:1037B0000492BDF808201A80FFF79EBA049A136895
:1037C00004320492029A1A60FFF796BA019800999F
:1037D000CDF820C00DAAFFF721FA00287FF41EAE15
:1037E0000E990F9ADDF820C0481C544691E548F028
:1037F00020080BF101009BF80130FFF7B4BA6D42CD
:1038000004935846FFF7C6BB0798049600F054FF90
:103810009DF82F5081464FF0000CFFF76DBB0198CB
:103820000099CDF814C00DAAFFF7F8F900287FF42D
:10383000F5AD0E990F9ADDF814C0481C54468CE57E
:103840000E990F9A154F0131FFF798BBBCF1060F87
:1038500028BF4FF0060C124B0496E1462CEAEC769A
:10386000079360E40E990D4F01F1010E18E6E14651
:103870009DF82F5004968446FFF73EBB86466BE6C4
:10388000049A9BF8013016680432002E0492BFF6A9
:103890006AAA4FF0FF36FFF766BA00BF305140000A
:1038A000285140002DE9F0420C46ADF58D6DB1F880
:1038B0000CE0E769496EB4F80E9019911AAD4FF417
:1038C00080662EF0020E4FF0000C07976946676A7B
:1038D0000095049502960596ADF80CE0ADF80E90B3
:1038E0000997CDF818C00646FFF7D4F9051E07DB87
:1038F00030466946FEF79AFB002818BF4FF0FF35A7
:10390000BDF80C305B0603D5A38943F04003A381C7
:1039100028460DF58D6DBDE8F08200BF70B5084CEE
:1039200006460025084611461A462560FCF74CFC61
:10393000431C00D070BD2368002BFBD0336070BDEA
:103940005C0B002038B52F4B1B6805460C4613B1A5
:103950009A6B002A36D0A28993B218070CD5206939
:10396000A8B113F001021ED0636900225B42A3617B
:10397000A260F0B1002038BDD9063BD5580725D448
:10398000206942F00803A3819BB20028E9D103F427
:103990002072B2F5007FE4D02846214600F0C2FA3A
:1039A000A3892069DDE7990758BF6269A2600028F2
:1039B000E0D1A3891A06DED543F04003A3814FF07E
:1039C000FF3038BD1846FEF7D7FBC4E7216B49B17D
:1039D00004F14003994203D02846FEF725FCA28952
:1039E0000023236322F0240200232069636092B243
:1039F0002060C6E742F0400209232B604FF0FF3001
:103A0000A28138BD30040020024B13B1024800F0FF
:103A100005B8704700000000D13A40000146002080
:103A20000246034600F002BF38B5074C00230546A6
:103A300008462360FCF75CFF431C00D038BD2368B8
:103A4000002BFBD02B6038BD5C0B002000293DD043
:103A500070B505460C4608B1836B7BB3B4F90C30E6
:103A60000BB9002070BD28462146FEF735FAE36AFF
:103A7000064633B12846E16998470028B8BF4FF0A1
:103A8000FF36A3891B061CD4216B41B104F140030E
:103A9000994202D02846FEF7C7FB00232363616CDE
:103AA00021B12846FEF7C0FB00236364FEF76AFBE2
:103AB0000023A381FEF768FB304670BDFEF75CFB78
:103AC000CCE728462169FEF7AFFBDDE70020704711
:103AD00038B5084B084DED1AAC1018BFED1805D0DD
:103AE000013C55F8043D9847002CF9D1BDE8384019
:103AF00001F030BB60514000645140002DE9F041BD
:103B000082B007460E46144600F0F2F9012841D073
:103B1000384601A9324604F15C0300F04FFEB0F1D3
:103B2000FF3F80462FD000283CD09DF80410002590
:103B300009E0236819702368013323600135A84523
:103B400030D901AB595DA368013B002BA360F0DACB
:103B5000A269934207DB23681970236819780A2940
:103B600003F10103E9D13846224600F0D3FDA0F16C
:103B7000FF30B0FA80F040090028DFD04FF0FF306E
:103B800002B0BDE8F081A38943F04003A38102B0F5
:103B9000BDE8F081731EFE2BBAD8F1B280468DF8D5
:103BA0000410C4E7304602B0BDE8F081938913F4F5
:103BB000005F0BD110B4546E43F4005344F400542E
:103BC000546693815DF8044BFFF798BFFFF796BFEB
:103BD0009368002B7AD02DE9F04FB1F80CE01EF07D
:103BE000080F83B00C468146164626D00B6923B3D6
:103BF0000EF002081FFA88F0356870B34FF0000A23
:103C0000DFF8E0B2D046D8454346524628BF5B466F
:103C10004846B8F1000F53D0E169676AB8470028F9
:103C200073DDB3681B1A8244C0EB0808B360002B35
:103C3000E9D1002003B0BDE8F08F48462146FFF7E8
:103C400081FE002840F04581B4F80CE035680EF0A4
:103C500002081FFA88F00028D0D11EF0010B5DD1B8
:103C6000D846B8F1000F25D01EF4007FA7682FD0EA
:103C7000B845BA46C0F0A9801EF4906F40F0B680F7
:103C800020685246594600F0A9FAA0682268C01B75
:103C900002EB0A03A06023604046B3681B1A83440A
:103CA000C0EB0808B360002BC3D0B4F80CE0B8F147
:103CB000000FD9D1D5F800B0D5F804800835D0E789
:103CC000D5F800A0D5F8048008359CE7002070479F
:103CD00020682369984203D86269904580F0B980D2
:103CE000474528BF47463A46594600F077FAA36849
:103CF0002268DB1B3A44A3602260002B4AD148466D
:103D00002146FEF793F9002844D0A38943F04003ED
:103D10004FF0FF30A38103B0BDE8F08F80460090E4
:103D200083468246BAF1000F2CD0009B002B50D066
:103D300020682169D4F808E06269D045434628BF6D
:103D4000534688421F4604D90EEB020C634500F32C
:103D50009280934220DB1346676AE16948465A46DF
:103D6000B847071ED1DDB8EB070825D0B368DB1BC9
:103D7000BB44C7EB0A0AB360002B3FF45AAFBAF159
:103D8000000FD2D10023D5F800B0D5F804A00093DD
:103D90000835C7E7384680E71A465946019300F0D0
:103DA0001DFAA2682168019BB8EB0708A2EB030289
:103DB0000B44A2602360D9D148462146FEF736F96C
:103DC0000028A2D1CDF80080D0E720684746C2463F
:103DD00057E758460A21524600F01CF9002873D0D4
:103DE00001300123CBEB00080093A1E7676921694B
:103DF000236807EB47075B1A07EBD777581C7F1040
:103E0000404487423A463CBF07463A461EF4806F1C
:103E1000009346D011464846FEF744FB009B82467D
:103E2000002859D01A462169009300F03DF9A28973
:103E3000009B22F4906242F08002A2810AEB030010
:103E4000FB1AC4F810A067612060A3604746C24611
:103E500017E76FF00043434528BF4346676A93FB6B
:103E6000F2F3484603FB02F3E1695A46B8470028DB
:103E70003FF713AF49E762465946CDF804C000F05A
:103E8000ADF92368DDF804C0634423604846214649
:103E9000FEF7CCF8DDF804C000287FF436AF6746A3
:103EA00061E7484600F012FA009B82460028C5D11F
:103EB00048462169FEF7B8F9A3890C2223F0800354
:103EC0009BB2C9F8002021E701230AF10108009301
:103ED0002EE74FF0FF30ADE60C23C9F80030A38980
:103EE00014E700BF00FCFF7F004870474408002033
:103EF000014B1868704700BF6408002070B5084C7B
:103F000006460025084611461A462560FCF7FCFCCB
:103F1000431C00D070BD2368002BFBD0336070BD04
:103F20005C0B00208B899AB212F0020F3CD1F0B5E5
:103F30000C46B1F90E10002991B0054619DB01AA13
:103F400000F0C6FC002812DB029B03F47043B3F5BB
:103F5000004FA3F50057B7FA87F74FEA57172AD053
:103F6000A38943F40063A3814FF480660BE0A38927
:103F70009AB212F0800F43F40063A3810CBF4FF498
:103F800080664026002728463146FEF78BFAA38933
:103F900040B31A4AEA6343F08003A38120602061A2
:103FA00066619FB911B0F0BD01F1430301220B60BE
:103FB0000B614A617047124BA26A9A42D0D1A38921
:103FC0004FF480663343A381E664DCE72846B4F906
:103FD0000E1000F091FC0028E4D0A38943F0010307
:103FE000A381DFE79A05DDD404F1430243F0020325
:103FF0000121A381226022616161D3E77D2040001D
:10400000F52B4000024B01461868FEF74BBA00BF83
:1040100030040020830770B4C9B240D0541E002A77
:104020003FD003788B4218BF431C06D11DE0F4B18A
:1040300002788A4204F1FF3417D013F0030F1846B8
:1040400003F10103F3D1032C14D884B103788B421C
:104050000BD00519431C02E002788A4205D0AB421E
:10406000184603F10103F7D1002070BC70472046C9
:1040700070BC704741EA0126024646EA06461046F1
:10408000043203687340A3F1013525EA030313F0FA
:10409000803FDAD1043C032C1046F0D8D5E7144613
:1040A000D1E71046E1E700BF844641EA000313F080
:1040B00003036DD1403A41D351F8043B40F8043B2F
:1040C00051F8043B40F8043B51F8043B40F8043BF2
:1040D00051F8043B40F8043B51F8043B40F8043BE2
:1040E00051F8043B40F8043B51F8043B40F8043BD2
:1040F00051F8043B40F8043B51F8043B40F8043BC2
:1041000051F8043B40F8043B51F8043B40F8043BB1
:1041100051F8043B40F8043B51F8043B40F8043BA1
:1041200051F8043B40F8043B51F8043B40F8043B91
:1041300051F8043B40F8043B403ABDD2303211D331
:1041400051F8043B40F8043B51F8043B40F8043B71
:1041500051F8043B40F8043B51F8043B40F8043B61
:10416000103AEDD20C3205D351F8043B40F8043B31
:10417000043AF9D2043208D0D2071CBF11F8013B2F
:1041800000F8013B01D30B8803806046704700BFF5
:10419000082A13D38B078DD010F003038AD0C3F104
:1041A0000403D21ADB071CBF11F8013B00F8013BE6
:1041B00080D331F8023B20F8023B7BE7043AD9D3A5
:1041C000013A11F8013B00F8013BF9D20B7803707A
:1041D0004B7843708B788370604670478842F0B5A7
:1041E0000DD98B1898420AD28118002A54D09A1AF5
:1041F00013F8014D01F8014D9342F9D1F0BD0F2A9A
:1042000048D940EA01039B0747D100F1100401F1AE
:104210001003154653F8106C44F8106C53F80C6CEE
:1042200044F80C6C53F8086C44F8086C103D53F8D3
:10423000046C44F8046C0F2D03F1100304F1100416
:10424000E8D8A2F1100323F00F0302F00F0E103391
:10425000BEF1030F1944034421D91E1F0D467446B5
:10426000043C55F8047B46F8047F032CF8D8AEF1E3
:10427000040424F0030404342344214402F0030220
:1042800052B1013B0A4411F8014B03F8014F91422E
:10429000F9D1F0BD0346F3E7F0BD0346F1E77246FE
:1042A000EEE700BF70B5084C0646002508461146EB
:1042B0001A462560FBF76AFF431C00D070BD2368D7
:1042C000002BFBD0336070BD5C0B00202DE9F04F5C
:1042D000174683B00E46002900F0E780814607F1BB
:1042E0000B05FEF7BFFB56F8043C162D23F0030424
:1042F000A6F108084CD810221546AF424DD894427A
:1043000080F28480DFF8ACB3DBF8080008EB04012E
:10431000884200F0D680486820F0010E8E44DEF816
:1043200004E01EF0010F3FD120F003002044904232
:1043300080F2C180DB0700F18F8056F8083CC3EBA8
:10434000080ADAF8043023F0030300EB030E964565
:1043500034DBCB688A685746D3609A6057F8081FE9
:10436000DAF80C30CB60221F242A996000F23681E3
:10437000132A40F2FD803368CAF808307368CAF81F
:104380000C301B2A00F2408108360AF11003F0E0DD
:1043900025F00705002D2A46AFDA0C230020C9F8C6
:1043A000003003B0BDE8F08FD90755D456F8083C6B
:1043B000C3EB080ADAF8043023F0030323449342E2
:1043C0004ADB5746DAF80C1057F8080F221F242A48
:1043D000C160886000F20E81132A40F209813168C1
:1043E000CAF808107168CAF80C101B2A00F2218163
:1043F00008360AF110023168116071685160B168C5
:1044000091601C46DAF804303E46D046621B0F2A03
:1044100003F001030ED823434444C8F80430636812
:1044200043F0010363604846FEF71EFB304603B0CD
:10443000BDE8F08F08EB05011D4342F001030A447B
:10444000C8F804504B60536843F0010308315360CF
:104450004846FDF7E9FEE6E739464846FEF722F80A
:104460000746D8B156F8043C23F001024244A0F1BB
:104470000801914200F0AC80221F242A00F29980AA
:10448000132A6AD803463246116819605168596088
:1044900092689A6031464846FDF7C6FE4846FEF7E8
:1044A000E3FA384603B0BDE8F08F114603B0BDE82B
:1044B000F04FFDF7F7BFCA6889680446CA6091608B
:1044C000A4E7416821F00301214405F11000814275
:1044D0005BDADB07C0D456F8083CC3EB080ADAF80D
:1044E000043023F0030301EB030C60453FF766AF94
:1044F0005746DAF80C3057F8081F221F242ACB60E1
:10450000996000F2B880132A40F2A9803368CAF893
:1045100008307368CAF80C301B2A00F2B5800836E0
:104520000AF1100332681A6072685A60B2689A60C1
:104530000AEB0502C5EB0C0343F00103CBF808209E
:104540005360DAF8043003F001031D434846CAF80B
:104550000450FEF789FA384669E7336803607368E8
:1045600043601B2A29D800F1080306F108028BE7F3
:104570003B4632681A6072685A60B2689A603E467A
:104580007446DAF80430D04640E708EB05024B1BCE
:1045900043F00103CBF80820536056F8043C03F0C5
:1045A00001031D43484646F8045CFEF75DFA3046B9
:1045B0003DE73146FFF712FE6CE7B3688360F368AE
:1045C000C360242A2CD000F1100306F110025BE72F
:1045D00050F8042C22F00302144417E73146384601
:1045E00074463E46FFF7FAFDD046DAF804300DE790
:1045F0003A4600E7314638461C463E46FFF7EEFD98
:10460000D046DAF8043001E7B368CAF81030F3682E
:10461000CAF81430242A18D010360AF11803A8E773
:10462000336903617369436106F1180200F11803ED
:104630002AE7B168CAF81010F168CAF81410242AE1
:104640000FD010360AF11802D5E63369CAF81830CF
:104650007369CAF81C3018360AF1200389E73B4613
:1046600060E73269CAF818207269CAF81C20183647
:104670000AF12002BFE631463846CDF804C0FFF704
:10468000ADFDDDF804C053E7B368CAF81030F36835
:10469000CAF81430242A03D010360AF1180341E76F
:1046A0003369CAF818307369CAF81C3018360AF131
:1046B000200337E73404002020F0030110F003004A
:1046C000C0F1000051F8043B00F1040C4FEACC0C9F
:1046D0006FF000021CBF22FA0CF213434FF0010CE2
:1046E0004CEA0C2C4CEA0C4CA3EB0C0222EA030221
:1046F00012EACC1204BF51F8043B0430F4D0C2F1EA
:10470000000102EA0102B2FA82F2C2F11F0200EBDA
:10471000D200704770B50D461446064610B1836B43
:10472000002B48D0A289A369A36091B2080738D5AD
:104730002369002B35D08904EDB215D52268616953
:10474000D31A8B421CDA0133A168501C0139A160D5
:104750002060157062699A421AD0A389DB0701D5DF
:104760000A2D15D0284670BD616E42F4005221F426
:104770000051A281226861666169D31A8B42E2DB33
:1047800030462146FDF752FC40B922680123DBE7A1
:1047900030462146FDF74AFC0028E3D04FF0FF30B9
:1047A00070BD30462146FFF7CDF80028F6D1A2892A
:1047B000236991B2BFE7FDF7DFFCB3E72DE9F041D4
:1047C000054686B01E460C46A1B1104B1746D3F8DD
:1047D0000080FFF789FB0096034621463A462846AB
:1047E000C047431C03D100228A2332602B6006B0ED
:1047F000BDE8F081054B1F68FFF776FB0096034686
:104800002246284603A9B847EBE700BF6808002006
:1048100021B1FF2A04D80A7001207047084670476A
:104820008A2303604FF0FF30704700BF2DE9F04747
:10483000254C2568D5F84841064688469246994653
:10484000CCB360681F2818DC431C7EB104EB8005E4
:104850000121C5F888A0D4F8887101FA00F2174345
:10486000022EC4F88871C5F808911ED0023063602A
:1048700044F820800020BDE8F087144B03B34FF4C8
:10488000C870FFF7BFFB0446D0B1D5F84831002708
:1048900080E88800C5F8484138460123C4F888718B
:1048A000C4F88C71002EE1D0D0E7D4F88C110A4303
:1048B000C4F88C21DAE705F5A674C5F84841C0E7CD
:1048C0004FF0FF30BDE8F087EC504000054040005D
:1048D00038B5084C00230546084611462360FCF70E
:1048E0000BF8431C00D038BD2368002BFBD02B6095
:1048F00038BD00BF5C0B002038B5074C00230546CF
:1049000008462360FBF7FEFF431C00D038BD236838
:10491000002BFBD02B6038BD5C0B002053B94AB98B
:10492000002908BF00281CBF4FF0FF314FF0FF30B7
:1049300000F03CB882B0EC462DE9005000F01EF8C3
:10494000DDF804E002B00CBC704700BF2DE9F04177
:10495000069C154606460F46984600F029F805FBCA
:1049600001F300FB0838A5FB0023B21A434467EBB0
:104970000303C4E90023BDE8F08100BF2DE9F04145
:10498000069C904606460F461D4600F05FF900FB68
:1049900005F5A0FB082308FB0155B21A2B4467EB71
:1049A0000303C4E90023BDE8F08100BF704700BFE6
:1049B00000292DE9F043C0F2A6800026002BC0F2AA
:1049C0009C80884694469E46154604460F46002B1A
:1049D0003DD18A4259D9B2FA82F33BB1C3F12002E8
:1049E0009F4020FA02F29D4017439C40290C220C64
:1049F000B7FBF1FEA8B201FB1E7742EA074700FBB6
:104A00000EF3BB420AD97F190EF1FF3280F0058107
:104A1000BB4240F20281AEF1020E2F44FF1AA4B253
:104A2000B7FBF1F301FB137744EA074700FB03F000
:104A3000B84208D97F1903F1FF3280F0F080B84204
:104A400040F2ED80023B43EA0E43002203E08B423A
:104A50000FD900221346341C18BF012460424FF0C6
:104A6000000565EB45015840514000196941BDE81A
:104A7000F083B3FA83F2002A40F086808B4202D39F
:104A8000844500F2DB800123E5E712B90123B3FB83
:104A9000F2F5B5FA85F000283BD1781B4FEA154EA8
:104AA0001FFA85FC0122B0FBFEF8210C0EFB180753
:104AB00041EA07470CFB08F3BB4207D97F1908F10D
:104AC000FF3102D2BB4200F2BD808846FF1AA4B279
:104AD000B7FBFEF30EFB137744EA07470CFB03FC1E
:104AE000BC4507D97F1903F1FF3102D2BC4500F262
:104AF000A7800B4643EA0843ADE752426FEA060639
:104B000063EB43035DE7404261EB41014FF0FF3649
:104B100054E7C0F1200224FA02F107FA00F38540BD
:104B20004FEA154ED7401943B7FBFEF20B0C0EFBB4
:104B300012771FFA85FC43EA07430CFB02F79F42FA
:104B400004FA00F407D95B1902F1FF3074D29F42D6
:104B500072D9023A2B44DF1B89B2B7FBFEF80EFB79
:104B6000187341EA03430CFB08F79F4208D95B190D
:104B700008F1FF315CD29F425AD9A8F102082B44B8
:104B8000D81B48EA02428EE7C2F120032CFA03F157
:104B90000EFA02FE20FA03F741EA0E0E08FA02F0BE
:104BA00028FA03F14FEA1E453843B1FBF5F8030C30
:104BB00005FB18111FFA8EF743EA014107FB08F3C2
:104BC0008B420CFA02FC09D911EB0E0108F1FF39F6
:104BD00030D28B422ED9A8F102087144C91A80B292
:104BE000B1FBF5F305FB131140EA014107FB03F7A5
:104BF0008F4208D911EB0E0103F1FF3016D28F421C
:104C000014D9023B714443EA0843C91BA3FB0C8936
:104C1000494509D305D000221DE79646FEE6134616
:104C200011E794404445F6D2013BF4E70346EAE736
:104C30008846A5E7C846D1E702468CE713460AE74F
:104C4000023B57E7A8F102082F443FE72DE9F04166
:104C5000002B44D18A42154604464FD9B2FA82F756
:104C60000E464FB1C7F12003B94020FA03F602FA0D
:104C700007F50E4300FA07F44FEA154E230CB6FB76
:104C8000FEF0AFB20EFB106143EA014307FB00F1F7
:104C9000994209D95B1900F1FF3280F0EC8099420A
:104CA00040F2E98002382B445A1AA4B2B2FBFEF358
:104CB0000EFB132244EA024207FB03F7974208D98E
:104CC000521903F1FF3180F0D880974240F2D5802D
:104CD000023B43EA004000263146BDE8F0818B42AA
:104CE00047D8B3FA83F6002E48D18B4202D38242D2
:104CF00000F2CD8001203146BDE8F08112B90125D6
:104D0000B5FBF2F5B5FA85F8B8F1000F77D14A1B7B
:104D10004FEA154EAFB20126B2FBFEF0230C0EFB9C
:104D2000102143EA014107FB00F38B4207D94919DF
:104D300000F1FF3202D28B4200F2BA801046C91A4B
:104D4000A4B2B1FBFEF30EFB131144EA014407FBCE
:104D500003F7A74208D9641903F1FF3280F08F806E
:104D6000A74240F28C80023B43EA00403146BDE856
:104D7000F081002630463146BDE8F081C6F12004BE
:104D800022FA04F5B3402B4320FA04FC01FA06F79B
:104D900021FA04F54FEA134E4CEA0707B5FBFEF87B
:104DA000390C0EFB18551FFA83FC41EA05450CFB34
:104DB00008F1A94202FA06F204D9ED1808F1FF340D
:104DC00067D3A0466D1ABFB2B5FBFEF40EFB1455B7
:104DD00047EA05410CFB04FC8C4504D9C91804F1D1
:104DE000FF355CD32C4644EA0844CCEB0101A4FB1C
:104DF0000223994248D344D0204600266CE7C8F1EC
:104E0000200401FA08F305FA08F520FA04F7E14056
:104E10004FEA154E1F43B1FBFEF63A0C0EFB16117E
:104E20001FFA85FC42EA01430CFB06F29A4200FAA3
:104E300008F407D95B1906F1FF3137D29A4235D908
:104E4000023E2B449B1ABFB2B3FBFEF00EFB1033A5
:104E500047EA03430CFB00F1994207D95B1900F1C3
:104E6000FF3221D299421FD902382B445A1A40EA04
:104E70000646674650E7104616E70B4629E71346F5
:104E800072E7B0409042B7D2601E002624E7304659
:104E900022E7A94295D9A8F102081D4492E78C4562
:104EA000A0D9023C19449EE71046DFE70E46C9E749
:104EB0000238294443E700BF2D2D2051746F7563DC
:104EC000682050726F6A656374202D2D0D0A2D2D98
:104ED0002053414D34532D454B32202D2D0D0A2D9D
:104EE0002D20436F6D70696C65643A204A756E20A1
:104EF000203120323031362031373A32363A3435AB
:104F0000202D2D0D00000000436F6E6669677572DD
:104F10006520737973207469636B20746F206765F3
:104F200074202575206D73207469636B2070657221
:104F3000696F642E0A0D00004C69627261727920FB
:104F400051546F75636820004C69627261727920F8
:104F5000514D61747269782000000000666F722004
:104F60004743430A0D000000666F72204941520A10
:104F70000D0000004D6178204368616E6E656C73B2
:104F80002025640A0D000000737570706F727473D1
:104F9000206F6E6C79206B657973200A0D0000001C
:104FA000737570706F727473206B65797320616EA6
:104FB0006420726F746F72732F736C69646572739F
:104FC0000A0D00004D6178696D756D206E756D621A
:104FD0006572206F6620526F746F72732F536C6905
:104FE00064657273202564200A0D00005665727393
:104FF000696F6E20307825580A0D000056616C6983
:1050000064205072657373200A0D000056616C694C
:10501000642052656C65617365200A0D0000000014
:105020005570204B6579205072657373200A0D000E
:105030005570204B65792052656C65617365200A57
:105040000D000000446F776E204B6579205072652B
:105050007373200A0D000000446F776E204B657952
:105060002052656C65617365200A0D004C6566749D
:10507000204B6579205072657373200A0D00000083
:105080004C656674204B65792052656C656173656B
:10509000200A0D005269676874204B6579205072B0
:1050A000657373200A0D00005269676874204B65B0
:1050B000792052656C65617365200A0D000000005F
:1050C000256420002D462D205379737469636B206D
:1050D000636F6E66696775726174696F6E20657261
:1050E000726F720A0D0000004300000008000020EB
:1050F00030303030303030303030303030303030B0
:1051000030313233343536373839414243444546FD
:1051100000000000303132333435363738396162BF
:105120006364656600000000286E756C6C290000E1
:10513000202020202020202020202020202020206F
:10514000F8B500BFF8BC08BC9E467047093A40005D
:10515000F1004000F8B500BFF8BC08BC9E4670479F
:04516000CD0040003E
:085164004CF8FF7F0100000080
:10516C0000093D001900010000000000F4020020BD
:10517C005C030020C40300200000000000000000BD
:10518C000000000000000000000000000000000013
:10519C00000000000000000000000000E85040008B
:1051AC0000000000000000000000000000000000F3
:1051BC0000000000000000000000000000000000E3
:1051CC0000000000000000000000000000000000D3
:1051DC0000000000000000000000000000000000C3
:1051EC0000000000000000000000000000000000B3
:1051FC0000000000000000000000000000000000A3
:10520C000000000000000000000000000000000092
:10521C0001000000000000000E33CDAB34126DE62F
:10522C00ECDE05000B000000000000000000000098
:10523C000000000000000000000000000000000062
:10524C000000000000000000000000000000000052
:10525C000000000000000000000000000000000042
:10526C000000000000000000000000000000000032
:10559C00080000200000000000000000340400207F
:1055AC00340400203C0400203C040020440400206F
:1055BC00440400204C0400204C040020540400201F
:1055CC00540400205C0400205C04002064040020CF
:1055DC00640400206C0400206C040020740400207F
:1055EC00740400207C0400207C040020840400202F
:1055FC00840400208C0400208C04002094040020DF
:10560C00940400209C0400209C040020A40400208E
:10561C00A4040020AC040020AC040020B40400203E
:10562C00B4040020BC040020BC040020C4040020EE
:10563C00C4040020CC040020CC040020D40400209E
:10564C00D4040020DC040020DC040020E40400204E
:10565C00E4040020EC040020EC040020F4040020FE
:10566C00F4040020FC040020FC04002004050020AD
:10567C00040500200C0500200C050020140500205A
:10568C00140500201C0500201C050020240500200A
:10569C00240500202C0500202C05002034050020BA
:1056AC00340500203C0500203C050020440500206A
:1056BC00440500204C0500204C050020540500201A
:1056CC00540500205C0500205C05002064050020CA
:1056DC00640500206C0500206C050020740500207A
:1056EC00740500207C0500207C050020840500202A
:1056FC00840500208C0500208C05002094050020DA
:10570C00940500209C0500209C050020A405002089
:10571C00A4050020AC050020AC050020B405002039
:10572C00B4050020BC050020BC050020C4050020E9
:10573C00C4050020CC050020CC050020D405002099
:10574C00D4050020DC050020DC050020E405002049
:10575C00E4050020EC050020EC050020F4050020F9
:10576C00F4050020FC050020FC05002004060020A8
:10577C00040600200C0600200C0600201406002055
:10578C00140600201C0600201C0600202406002005
:10579C00240600202C0600202C06002034060020B5
:1057AC00340600203C0600203C0600204406002065
:1057BC00440600204C0600204C0600205406002015
:1057CC00540600205C0600205C06002064060020C5
:1057DC00640600206C0600206C0600207406002075
:1057EC00740600207C0600207C0600208406002025
:1057FC00840600208C0600208C06002094060020D5
:10580C00940600209C0600209C060020A406002084
:10581C00A4060020AC060020AC060020B406002034
:10582C00B4060020BC060020BC060020C4060020E4
:10583C00C4060020CC060020CC060020D406002094
:10584C00D4060020DC060020DC060020E406002044
:10585C00E4060020EC060020EC060020F4060020F4
:10586C00F4060020FC060020FC06002004070020A3
:10587C00040700200C0700200C0700201407002050
:10588C00140700201C0700201C0700202407002000
:10589C00240700202C0700202C07002034070020B0
:1058AC00340700203C0700203C0700204407002060
:1058BC00440700204C0700204C0700205407002010
:1058CC00540700205C0700205C07002064070020C0
:1058DC00640700206C0700206C0700207407002070
:1058EC00740700207C0700207C0700208407002020
:1058FC00840700208C0700208C07002094070020D0
:10590C00940700209C0700209C070020A40700207F
:10591C00A4070020AC070020AC070020B40700202F
:10592C00B4070020BC070020BC070020C4070020DF
:10593C00C4070020CC070020CC070020D40700208F
:10594C00D4070020DC070020DC070020E40700203F
:10595C00E4070020EC070020EC070020F4070020EF
:10596C00F4070020FC070020FC070020040800209E
:10597C00040800200C0800200C080020140800204B
:10598C00140800201C0800201C08002024080020FB
:10599C00240800202C0800202C0800200000020005
:1059AC00FFFFFFFF41534349490000000000000086
:1059BC0000000000000000000000000000000000DB
:0C59CC0000000000010000001148400035
:04000005004006654C
:00000001FF
