:020000040040BA
:10000000E034002015084000DD084000DD08400015
:10001000DD084000DD084000DD0840000000000071
:10002000000000000000000000000000DD084000AB
:10003000DD08400000000000DD084000DD08400051
:10004000DD084000DD084000DD084000DD0840001C
:10005000DD084000DD084000DD084000DD0840000C
:10006000DD084000DD084000000000007105400090
:1000700089054000A1054000DD084000DD08400082
:100080000000000000000000DD084000DD08400026
:10009000DD084000DD084000DD084000DD084000CC
:1000A000DD084000DD084000DD084000DD084000BC
:1000B000DD084000DD084000DD084000DD084000AC
:1000C000DD084000DD084000DD08400010B5054CAB
:1000D000237833B9044B13B10448AFF300800123F4
:1000E000237010BD48040020000000009C15400053
:1000F000084B10B51BB108480849AFF30080084809
:10010000036803B910BD074B002BFBD0BDE81040BE
:10011000184700BF000000009C1540004C04002060
:100120009C1540000000000080B582B000AF7860F0
:100130007B68072B30D801A252F823F099014000C8
:100140005D014000650140006D0140007501400007
:100150007D014000850140008F0140000020104BD0
:10016000984719E001200E4B984715E000200D4BF1
:10017000984711E010200B4B98470DE02020094BC9
:10018000984709E000203E21074B984704E00120F2
:100190003E21054B984700BF0837BD4680BD00BFD4
:1001A0003D064000A90640001907400080B582B016
:1001B00000AF78607B68072B26D801A252F823F0A5
:1001C000E1014000E5014000E5014000F701400089
:1001D000F7014000F7014000F7014000F70140003F
:1001E000012312E00B4B98470346002B14BF012359
:1001F0000023DBB209E0084B98470346002B14BFED
:1002000001230023DBB200E0002318460837BD4677
:1002100080BD00BF750640009107400080B483B0E8
:1002200000AF78607B68072B25D801A252F823F035
:1002300051024000570240005D024000630240004E
:10024000670240006B0240006F02400073024000F2
:100250004FF4FA4310E04FF400430DE04FF4004335
:100260000AE0084B08E0084B06E0084B04E0074BA7
:1002700002E0064B00E0002318460C37BD465DF84F
:10028000047B704700093D0000127A00001BB70094
:1002900080B582B000AF0346FB7100BFFB79184602
:1002A000054B9847034683F00103DBB2002BF5D1E1
:1002B0000837BD4680BD00BFAD01400080B586B0A7
:1002C00000AFF8607A603B600B46FB72FB7A184621
:1002D0000D4B984702467B68B2FBF3F37B617B6969
:1002E0003A6802FB03F37B613B68013B1A04074B4E
:1002F00013407A68D2B2134343F47C52FB681A600D
:100300001837BD4680BD00BF1D0240000000FF073A
:1003100080B582B000AF786039603B68002B08D1AF
:10032000084B9847084A7B681B6843F00053936268
:1003300005E0064B9847044A7B681B68D362083780
:10034000BD4680BDAD07400000040E40E1074000FF
:1003500080B582B000AF78607B68002B03D1054B7D
:100360009847034602E0044B98470346184608376F
:10037000BD4680BDC5074000F907400080B582B08A
:1003800000AF0346FB71FB79033B042B08D8FB79D4
:100390001846054B9847FB791846044B984700E0F0
:1003A00000BF0837BD4680BD2901400091024000D2
:1003B00080B582B000AF786000BF7868044B984782
:1003C0000346002BF9D0002318460837BD4680BDF0
:1003D0005103400080B500AF0620044B9847024609
:1003E00013469B0013449B00184680BD1D0240002D
:1003F00080B500AF024B984703465B08184680BDA6
:10040000D503400090B583B000AF1148114B984719
:100410000620114B98473B1D184606210122142344
:100420000E4CA0473B1D184600210D4B984700205D
:100430000C4B984710200C4B98470C4B98470C4B93
:10044000984703461846034B98470C37BD4690BD66
:10045000000E2707810A40007D034000BD024000D6
:1004600011034000B1034000B9054000E508400019
:10047000F103400080B483B000AF78607B68DB6C30
:1004800018460C37BD465DF8047B704780B483B0D6
:1004900000AF78607B689B6C18460C37BD465DF8F2
:1004A000047B704780B584B000AF786039607868AD
:1004B0002A4B9847F8607868294B98470246FB68B2
:1004C0001340FB60FB68002B38D00023BB6032E098
:1004D000244ABB681B0113441A683B689A4223D123
:1004E000204ABB681B0113445A68FB681340002B69
:1004F0001AD01C4ABB681B01134408335B681949B6
:10050000BA6812010A4410681649BA6812010A440E
:10051000526811469847134ABB681B0113445B6835
:10052000DB43FA681340FB60BB680133BB60BB6808
:10053000062B00D902E0FB68002BC9D10A4B1B68CF
:10054000002B07D0094B1B68002B03D0074B1B68FF
:10055000786898471037BD4680BD00BF75044000DD
:100560008D04400064040020D8040020D40400203E
:1005700080B500AF02480B21024B984780BD00BFF9
:10058000000E0E40A504400080B500AF02480C21CB
:10059000024B984780BD00BF00100E40A5044000EC
:1005A00080B500AF02480D21024B984780BD00BFC7
:1005B00000120E40A504400080B485B000AF786002
:1005C0001D491D4B1B6B23F070027B6813430B63AB
:1005D0004FF40063FB6007E0FB68002B01D10123AF
:1005E00023E0FB68013BFB60134B9B6E03F00803A9
:1005F000002BF1D0104A104B1B6B23F0030343F088
:10060000020313634FF40063FB6007E0FB68002BF9
:1006100001D1012309E0FB68013BFB60064B9B6EA7
:1006200003F00803002BF1D0002318461437BD4611
:100630005DF8047B704700BF00040E4080B483B0B7
:1006400000AF78607B68012B07D1084A074B9B6895
:1006500043F0254343F480139360044B044A1A602B
:100660000C37BD465DF8047B704700BF10140E4088
:10067000080000A580B400AF094B5B6903F080035C
:10068000002B07D0074B9B6E03F08003002B01D09B
:10069000012300E000231846BD465DF8047B704747
:1006A00010140E4000040E4080B483B000AF786098
:1006B000184A184B1B6A43F45C1343F00803136297
:1006C00000BF144B9B6E03F40033002BF9D011498B
:1006D000104B1B6A23F45C1323F070037A681343F6
:1006E00043F45C130B6200BF0A4B9B6E03F40033B0
:1006F000002BF9D0074A074B1B6A23F09B7323F4A6
:10070000803343F45C1313620C37BD465DF8047B01
:10071000704700BF00040E4080B483B000AF786023
:1007200039607B68002B08D01649164B1B6A164AA5
:100730001A40164B13430B621EE01249114B1B6A01
:1007400023F45C1323F003033A68120292B21343BA
:1007500043F45C1343F001030B6200BF094B9B6E33
:1007600003F00103002BF9D0064A064B1B6A43F045
:100770009B7343F4803313620C37BD465DF8047BF2
:10078000704700BF00040E40FCFFC8FE02003701A6
:1007900080B400AF044B9B6E03F480331846BD4613
:1007A0005DF8047B704700BF00040E4080B400AFCA
:1007B000034B4FF000529A62BD465DF8047B7047D0
:1007C00000040E4080B400AF044B9B6E03F00203A4
:1007D0001846BD465DF8047B704700BF00040E401C
:1007E00080B400AF034B0022DA62BD465DF8047BA3
:1007F000704700BF00040E4080B400AF044B9B6EF6
:1008000003F004031846BD465DF8047B704700BF43
:1008100000040E4080B584B000AF274BFB60274B2F
:10082000BB60FA68BB689A420DD907E0BB681A1D25
:10083000BA60FA68111DF96012681A60BB68204A34
:100840009342F3D320E0FA68BB689A421CD21C4A58
:100850001A4BD31A7B60FA687B681344043BFB6035
:10086000BA687B681344043BBB600AE0BB681A1F8C
:10087000BA60FA68111FF96012681A607B68043B5D
:100880007B607B68002BF1D100BF0E4BBB6004E0A6
:10089000BB681A1DBA6000221A60BB680A4A9342FC
:1008A000F6D30A4BFB600A4AFB689360094B9847F2
:1008B000094B9847FEE700BF9C1540000000002050
:1008C0004804002048040020DC0400200000400010
:1008D00000ED00E029144000B10C400080B400AFEE
:1008E000FEE700BF80B400AF5D4B1B6B03F003035A
:1008F000032B00F2968001A252F823F00D0940006C
:100900002D0940007709400077094000554B5B698D
:1009100003F08003002B04D0534B4FF400421A60C5
:1009200080E0514B4FF4FA421A607BE04C4B1B6A5B
:1009300003F08073002B03D04B4B4C4A1A6019E034
:10094000494B4B4A1A60464B1B6A03F07003102B4D
:1009500008D0202B0AD0002B00D00BE0424B444A99
:100960001A6007E0404B434A1A6003E03E4B3F4A9F
:100970001A6000BF56E03A4B1B6A03F08073002BED
:1009800003D0394B394A1A6019E0374B384A1A609C
:10099000334B1B6A03F07003102B08D0202B0AD0B6
:1009A000002B00D00BE0304B314A1A6007E02E4B91
:1009B000304A1A6003E02C4B2C4A1A6000BF284BC7
:1009C0001B6B03F00303022B15D1254B9A6A2A4BAC
:1009D00013401B0C0133244A126802FB03F3224A22
:1009E00013601F4B9B6ADBB21F4A1268B2FBF3F322
:1009F0001D4A136016E01A4BDA6A1F4B13401B0C9A
:100A00000133194A126802FB03F3174A1360144BAF
:100A1000DB6ADBB2144A1268B2FBF3F3124A1360CA
:100A200000E000BF0E4B1B6B03F07003702B08D16E
:100A30000D4B1B68114AA2FB03235B080A4A136093
:100A400009E0074B1B6B03F070031A09064B1B6888
:100A5000D340054A1360BD465DF8047B704700BF74
:100A600000040E4010140E401C000020001BB700B4
:100A700000093D0000127A000000FF07ABAAAAAAF5
:100A800080B483B000AF78607B68224A934208D874
:100A9000214B4FF080621A60204B4FF080621A6049
:100AA00033E07B681E4A934206D81B4B1D4A1A60EE
:100AB0001A4B1C4A1A6028E07B681B4A934206D8EE
:100AC000154B1A4A1A60154B184A1A601DE07B68CC
:100AD000174A934206D8104B164A1A600F4B154A14
:100AE0001A6012E07B68144A934208D80A4B4FF010
:100AF00004221A60094B4FF004221A6005E0064BED
:100B00000E4A1A60054B0D4A1A600C37BD465DF857
:100B1000047B7047FF2C3101000A0E40000C0E4090
:100B2000FF59620200010004FF86930300020004E3
:100B3000FFB3C40400030004FFE0F5050005000452
:100B400080B485B000AFF860B9607A607B68012B33
:100B500002D1FB68BA685A667B68002B02D1FB6839
:100B6000BA681A661437BD465DF8047B704700BF4B
:100B700080B483B000AF786039607B683A681A63EC
:100B80000C37BD465DF8047B704700BF80B483B06E
:100B900000AF786039607B683A685A630C37BD46AD
:100BA0005DF8047B704700BF80B483B000AF78600D
:100BB00039607B68DA6B3B681340002B01D001235E
:100BC00000E0002318460C37BD465DF8047B7047F3
:100BD00080B483B000AF78607B681F2B06D80A4AC8
:100BE0007B68012101FA03F3136106E0064A7B6882
:100BF000012101FA03F3C2F80031002318460C3733
:100C0000BD465DF8047B704700040E4080B483B09D
:100C100000AF78607B68072B25D801A252F823F03B
:100C2000410C4000470C40004D0C4000530C40006C
:100C3000570C40005B0C40005F0C4000630C400010
:100C40004FF4FA4310E04FF400430DE04FF400433B
:100C50000AE0084B08E0084B06E0084B04E0074BAD
:100C600002E0064B00E0002318460C37BD465DF855
:100C7000047B704700093D0000127A00001BB7009A
:100C800080B500AF0620044B9847024613469B00F0
:100C900013449B00184680BD0D0C400080B500AF8A
:100CA000024B984703465B08184680BD810C400004
:100CB0002DE9F04F83B000AF674B9847674B4FF477
:100CC00000425A600B20664B98470C20644B9847B3
:100CD0000D20634B9847634B0022C3F8E420624B1E
:100CE0000022C3F8E420614B0022C3F8E4205D4BEE
:100CF0004FF400221A605B4B4FF480121A605A4B7B
:100D00004FF480121A60594B08221A60574B082280
:100D10005A61564808210122554B9847534B0822E7
:100D2000C3F884204F4B4FF400221A614D4B4FF40F
:100D300080121A614C4B4FF480121A614B48082103
:100D40004C4B98470346002B40D146484FF40021B6
:100D5000494B984744484FF48011484B9847484BBB
:100D60009847034618464FF0000102460B4692187A
:100D700043EB0303121843EB0103DD0045EA527510
:100D8000D40022462B46121843EB01034FEAC30955
:100D900049EA52794FEAC20842464B461046194684
:100DA00043F2AF624FF00003121843EB0103354EDC
:100DB0001046194643F2B0624FF00003B0470246B6
:100DC0000B4613461846304B984743E025484FF4EE
:100DD00000212A4B984724484FF48011264B98470E
:100DE000274B9847034618464FF0000102460B4632
:100DF000921843EB0303121843EB01034FEAC30BB2
:100E00004BEA527B4FEAC20A52465B46121843EB4A
:100E10000103D9007960796841EA52717960D300A1
:100E20003B60D7E900231046194643F2AF624FF00A
:100E30000003121843EB0103124E1046194643F209
:100E4000B0624FF00003B04702460B461346184607
:100E50000D4B984772E700BF0504400050140E4048
:100E6000D10B4000000E0E4000120E4000100E404C
:100E7000410B4000A90B40008D0B4000710B40005E
:100E80009D0C40008D0E40000100002053B94AB96E
:100E9000002908BF00281CBF4FF0FF314FF0FF3082
:100EA00000F03CB882B0EC462DE9005000F01EF88E
:100EB000DDF804E002B00CBC704700BF2DE9F04142
:100EC000069C154606460F46984600F029F805FB95
:100ED00001F300FB0838A5FB0023B21A434467EB7B
:100EE0000303C4E90023BDE8F08100BF2DE9F04110
:100EF000069C904606460F461D4600F05FF900FB33
:100F000005F5A0FB082308FB0155B21A2B4467EB3B
:100F10000303C4E90023BDE8F08100BF704700BFB0
:100F200000292DE9F043C0F2A6800026002BC0F274
:100F30009C80884694469E46154604460F46002BE4
:100F40003DD18A4259D9B2FA82F33BB1C3F12002B2
:100F50009F4020FA02F29D4017439C40290C220C2E
:100F6000B7FBF1FEA8B201FB1E7742EA074700FB80
:100F70000EF3BB420AD97F190EF1FF3280F00581D2
:100F8000BB4240F20281AEF1020E2F44FF1AA4B21E
:100F9000B7FBF1F301FB137744EA074700FB03F0CB
:100FA000B84208D97F1903F1FF3280F0F080B842CF
:100FB00040F2ED80023B43EA0E43002203E08B4205
:100FC0000FD900221346341C18BF012460424FF091
:100FD000000565EB45015840514000196941BDE8E5
:100FE000F083B3FA83F2002A40F086808B4202D36A
:100FF000844500F2DB800123E5E712B90123B3FB4E
:10100000F2F5B5FA85F000283BD1781B4FEA154E72
:101010001FFA85FC0122B0FBFEF8210C0EFB18071D
:1010200041EA07470CFB08F3BB4207D97F1908F1D7
:10103000FF3102D2BB4200F2BD808846FF1AA4B243
:10104000B7FBFEF30EFB137744EA07470CFB03FCE8
:10105000BC4507D97F1903F1FF3102D2BC4500F22C
:10106000A7800B4643EA0843ADE752426FEA060603
:1010700063EB43035DE7404261EB41014FF0FF3614
:1010800054E7C0F1200224FA02F107FA00F3854088
:101090004FEA154ED7401943B7FBFEF20B0C0EFB7F
:1010A00012771FFA85FC43EA07430CFB02F79F42C5
:1010B00004FA00F407D95B1902F1FF3074D29F42A1
:1010C00072D9023A2B44DF1B89B2B7FBFEF80EFB44
:1010D000187341EA03430CFB08F79F4208D95B19D8
:1010E00008F1FF315CD29F425AD9A8F102082B4483
:1010F000D81B48EA02428EE7C2F120032CFA03F122
:101100000EFA02FE20FA03F741EA0E0E08FA02F088
:1011100028FA03F14FEA1E453843B1FBF5F8030CFA
:1011200005FB18111FFA8EF743EA014107FB08F38C
:101130008B420CFA02FC09D911EB0E0108F1FF39C0
:1011400030D28B422ED9A8F102087144C91A80B25C
:10115000B1FBF5F305FB131140EA014107FB03F76F
:101160008F4208D911EB0E0103F1FF3016D28F42E6
:1011700014D9023B714443EA0843C91BA3FB0C8901
:10118000494509D305D000221DE79646FEE61346E1
:1011900011E794404445F6D2013BF4E70346EAE701
:1011A0008846A5E7C846D1E702468CE713460AE71A
:1011B000023B57E7A8F102082F443FE72DE9F04131
:1011C000002B44D18A42154604464FD9B2FA82F721
:1011D0000E464FB1C7F12003B94020FA03F602FAD8
:1011E00007F50E4300FA07F44FEA154E230CB6FB41
:1011F000FEF0AFB20EFB106143EA014307FB00F1C2
:10120000994209D95B1900F1FF3280F0EC809942D4
:1012100040F2E98002382B445A1AA4B2B2FBFEF322
:101220000EFB132244EA024207FB03F7974208D958
:10123000521903F1FF3180F0D880974240F2D580F7
:10124000023B43EA004000263146BDE8F0818B4274
:1012500047D8B3FA83F6002E48D18B4202D382429C
:1012600000F2CD8001203146BDE8F08112B90125A0
:10127000B5FBF2F5B5FA85F8B8F1000F77D14A1B46
:101280004FEA154EAFB20126B2FBFEF0230C0EFB67
:10129000102143EA014107FB00F38B4207D94919AA
:1012A00000F1FF3202D28B4200F2BA801046C91A16
:1012B000A4B2B1FBFEF30EFB131144EA014407FB99
:1012C00003F7A74208D9641903F1FF3280F08F8039
:1012D000A74240F28C80023B43EA00403146BDE821
:1012E000F081002630463146BDE8F081C6F1200489
:1012F00022FA04F5B3402B4320FA04FC01FA06F766
:1013000021FA04F54FEA134E4CEA0707B5FBFEF845
:10131000390C0EFB18551FFA83FC41EA05450CFBFE
:1013200008F1A94202FA06F204D9ED1808F1FF34D7
:1013300067D3A0466D1ABFB2B5FBFEF40EFB145581
:1013400047EA05410CFB04FC8C4504D9C91804F19B
:10135000FF355CD32C4644EA0844CCEB0101A4FBE6
:101360000223994248D344D0204600266CE7C8F1B6
:10137000200401FA08F305FA08F520FA04F7E14021
:101380004FEA154E1F43B1FBFEF63A0C0EFB161149
:101390001FFA85FC42EA01430CFB06F29A4200FA6E
:1013A00008F407D95B1906F1FF3137D29A4235D9D3
:1013B000023E2B449B1ABFB2B3FBFEF00EFB103370
:1013C00047EA03430CFB00F1994207D95B1900F18E
:1013D000FF3221D299421FD902382B445A1A40EACF
:1013E0000646674650E7104616E70B4629E71346C0
:1013F00072E7B0409042B7D2601E002624E7304624
:1014000022E7A94295D9A8F102081D4492E78C452C
:10141000A0D9023C19449EE71046DFE70E46C9E713
:101420000238294443E700BF70B50F4E0F4D761BBD
:10143000B61018BF002405D0013455F8043B984776
:10144000A642F9D10A4E0B4D761B00F091F8B6106A
:1014500018BF002406D0013455F8043B9847A64233
:10146000F9D170BD70BD00BF7C1540007C154000F7
:10147000841540007C154000024B13B1024800F077
:1014800005B8704700000000991440000146002094
:101490000246034600F016B838B5084B084DED1A61
:1014A000AC1018BFED1805D0013C55F8043D984725
:1014B000002CF9D1BDE8384000F064B89015400028
:1014C000941540002DE9F047254C2568D5F8484192
:1014D0000646884692469946CCB360681F2818DCB9
:1014E000431C7EB104EB80050121C5F888A0D4F827
:1014F000887101FA00F21743022EC4F88871C5F80A
:1015000008911ED00230636044F820800020BDE8BE
:10151000F087144B03B34FF4C870AFF30080044658
:10152000D0B1D5F84831002780E88800C5F8484197
:1015300038460123C4F88871C4F88C71002EE1D0BC
:10154000D0E7D4F88C110A43C4F88C21DAE705F50A
:10155000A674C5F84841C0E74FF0FF30BDE8F087FA
:101560006C15400000000000430000002000002037
:10157000F8B500BFF8BC08BC9E467047791440001F
:10158000F1004000F8B500BFF8BC08BC9E467047AB
:04159000CD0040004A
:081594008CF9FF7F010000004B
:10159C0080B483B000AF7860BFF35F8F0138FBD1AC
:1015AC000C37BD465DF8047B704700BF00093D0059
:1015BC00000000000C03002074030020DC0300205A
:1015CC00000000000000000000000000000000000F
:1015DC0000000000000000000000000000000000FF
:1015EC000000000068154000000000000000000032
:1015FC0000000000000000000000000000000000DF
:10160C0000000000000000000000000000000000CE
:10161C0000000000000000000000000000000000BE
:10162C0000000000000000000000000000000000AE
:10163C00000000000000000000000000000000009E
:10164C00000000000000000000000000000000008E
:10165C00000000000000000001000000000000007D
:10166C000E33CDAB34126DE6ECDE05000B00000042
:10167C00000000000000000000000000000000005E
:10168C00000000000000000000000000000000004E
:10169C00000000000000000000000000000000003E
:1016AC00000000000000000000000000000000002E
:04000005004008159A
:00000001FF
